:100000000C94BB010C94D8010C94D8010C943B1AAD
:100010000C94D8010C94D8010C94D8010C94D801FC
:100020000C94D8010C94D8010C94E5200C94B721C1
:100030000C94371C0C94D8010C94D8010C94D80162
:100040000C94D8010C94D8010C94D8010C94D801CC
:100050000C94D8010C94DB1C0C94D8010C94D8019E
:100060000C94D8010C94D8010C94D8010C94D801AC
:100070000C94D8010C94D8010C94D8010C94D8019C
:100080000C94D8010C94D8010C94D8010C94D8018C
:100090000C94D8010C94D8010C94D8010C94D8017C
:1000A0000C94D8010C94D8010C94D801D703D70331
:1000B0000304030478057805780578056B040405C6
:1000C0001505150524224B2243234B224323972257
:1000D000BA2243231123202329001E001F002000E1
:1000E000210022002B0014001A0008001500170040
:1000F000E10004001600070009000A00E0001D00EE
:100100001B000600190005000000E200E300015199
:100110002C002F0035002700260025002400230096
:100120002D00130012000C0018001C0034003300D6
:100130000F000E000D000B00E50038003700360000
:10014000100011000000E7002A00025128003000D2
:100150000100010001000100010046003A003B00DF
:100160003C003D003E003F0035001E021F02200201
:1001700021022202E1000100010001000100010052
:100180000000010001000100010001000100010068
:10019000010001004D004A004500440043004200B8
:1001A00041004000350227022602250224022302D4
:1001B000310230022F022E022D0200000000E40066
:1001C000E60003510100010035001E001F00200061
:1001D000210022003A003B003C003D003E003F0071
:1001E000400041004200430044004500E00001009F
:1001F00001000100010001000000010001000351A5
:10020000010001004C00A900AA00A800AD00AE004A
:10021000490027002600250024002300310030007B
:100220004F00520051005000E50000002F002E004A
:100230002D002E020000010001000100010001005C
:1002400000000000000000000000000000000000AE
:10025000000000000000000000000000000000009E
:10026000000000000000000000000000000000008E
:10027000000001000100010001000000000000007A
:10028000000000000000000000000000000000006E
:10029000000000000000000000000000000000005E
:1002A000000000000000000000000000000001004D
:1002B000010001000100000000AE00AF00DA028181
:1002C000FFD9F1DB20A4A62EAF00A0C000A1C8007A
:1002D000AED580A81FD300408D1420000E034C0023
:1002E00069006C00790035003800000010036C00D4
:1002F00069006C00690075006D0073000000040364
:10030000090409022200010100A0FA090400000109
:1003100003010100092111010001224000070581AC
:10032000030800011201000200000008D8042DEBB0
:1003300000010102000105010906A101050719E0FC
:1003400029E71500250195087501810295017508B9
:1003500081010507190029FF150026FF0095067584
:100360000881000508190129059505750191029577
:100370000175039101C011241FBECFEFDAE0DEBF8B
:10038000CDBF11E0A0E0B1E0EAEFF7E402C00590D4
:100390000D92A634B107D9F724E0A6E4B1E001C07C
:1003A0001D92AF36B207E1F70E9406140C94FB23AE
:1003B0000C94000081E0089581E008950C94DC0124
:1003C00008950C94E0011F93CF93DF9300D000D0E9
:1003D0001F92CDB7DEB749835A836B8330914901B1
:1003E00089819A81311114C0662359F0222349F082
:1003F0000E94AB07182F682F89819A810E945207AB
:1004000003C00E947E07182F69817A81812F04C062
:100410000E94AB0769817A810F900F900F900F9027
:100420000F90DF91CF911F910C94AD0EFC01262F00
:10043000408151816281738184810C94E30181E068
:100440000895CF93DF93EC0160E00E941602BE0195
:10045000DF91CF910C94E1010C941A100C941610BA
:1004600008950E94FC050E9430022FEF84E39CE077
:10047000215080409040E1F700C000000C94011D25
:100480000F931F93CF93DF938C0161E00E941602BC
:10049000EC01B8010E94DE018823F1F1B801CE0120
:1004A0000E9437188823C1F1B801CE010E944B1673
:1004B000882391F1B801CE010E949317882361F13E
:1004C000F8018281882309F1CB358DE5D807C1F089
:1004D00050F4C115FCE5DF0781F0CF3DDC45A9F400
:1004E0000E94DC0C19C0CC35EDE5DE0761F0CD359E
:1004F000DD4559F40E94250C08C00E9431020CC051
:100500000E942E0C02C00E94310CC801DF91CF91D5
:100510001F910F910C94DA0180E0DF91CF911F9130
:100520000F9108950E941A1C0E94AD020C94F115BF
:100530000E94B0020C94201C08950C949C0281E04F
:1005400008950C949F020895CF93C82F0E949D0296
:100550008C2F0E94A102CF91089580E00C94A402F8
:100560000E94661B0C94A4020E94661B9091480195
:10057000891721F0809348010C94A4020895CF9329
:10058000DF93CDB7DEB72B970FB6F894DEBF0FBE63
:10059000CDBF4F83588769877A878B8761110E9407
:1005A000710B9E012F5F3F4F86E0F90111928A95F2
:1005B000E9F785E0FE013796D90101900D928A9501
:1005C000E1F789819A814C815D81452B31F09F3F14
:1005D00031F491E08F3F19F403C091E001C090E045
:1005E00090FF09C049815A816B817C818D819E81F8
:1005F0000E94920A05C0C9010E941F028111F2CF18
:100600002B960FB6F894DEBF0FBECDBFDF91CF9112
:100610000895FC01808191810E94ED070895CF9398
:10062000882371F1C82F8CEF8C0F813AD0F46C2F96
:1006300080910201909103010E94BC1B882349F024
:100640006C2F80910201909103010E94F41B0E9483
:10065000930B6C2F80910201909103010E94F21B79
:100660000CC080E28C0F883058F4C77081E001C064
:10067000880FCA95EAF70E94540BCF910C94930B04
:10068000CF910895882349F1682F8CEF860F813A26
:1006900038F480910201909103010E94F41B0CC078
:1006A00080E2860F883050F4677081E001C0880FC7
:1006B0006A95EAF70E945A0B0C94930B8BE5860F10
:1006C000833020F480E090E00C94841B685A6731FA
:1006D00020F480E090E00C949A1B08951F93CF9330
:1006E000DF93182FEB010E940F03209741F08FE951
:1006F0009FE00197F1F700C000002197F6CF812F0E
:10070000DF91CF911F910C944203893319F060E07F
:1007100070E002C060E570E00C946E03882321F065
:100720000E94540B0C94930B0895882321F00E948F
:100730005A0B0C94930B0895CF92DF92EF92FF9295
:100740000F931F93CF93DF937C01D62FC72FFC010C
:100750001281058102950F700E944A0B8823B9F01F
:100760001123A9F08C2F807F803421F080E28D0F3F
:10077000883068F080913F0282FD09C082E00E94CB
:10078000F30B0E944A0B91E0D82ED92601C0D12C40
:10079000CC2EC2948FE0C8228C2D90E08C30910535
:1007A00008F0A6C1FC01EA5AFF4F0C949D238C2F40
:1007B000807FCF70882311F0C295C07F112399F0FC
:1007C000CC2309F481C180E28D0F883010F0D11163
:1007D00004C08C2F0E94540B03C08C2F0E94640B0A
:1007E0000E94930B71C18D2F0E944203CC2309F408
:1007F0007FC180E28D0F883038F1DD2329F18C2F05
:100800000E946A0B24C08C2F807FCF70803211F041
:10081000C295C07FDD2319F0D130A1F13DC0809198
:100820003F0282FF17C0112349F0CC2329F08C2FFF
:100830000E94540B0E94930B80E047C180E00E940D
:100840004203CC2309F454C18C2F0E945A0B0E94FE
:10085000930B4EC1112371F0002341F0013031F4AC
:100860000E94740B8C2B0E947C0B42C10E94740B63
:100870008C2B1DC0002319F0013009F439C10E94EE
:10088000890B25C0112321F0063008F031C10EC0BC
:10089000053008F02DC11BC0112361F0002331F099
:1008A000F701858180FF10C18F7085838C2F0E9496
:1008B0008E031EC1002359F0D93309F016C1FFEF92
:1008C00007EE13E0F15000401040E1F70CC18C2F0F
:1008D0000E9495030DC18C2F837009F047C0111140
:1008E0000BC12D2F229526952770220F220F6D2FD9
:1008F0006F70862F90E0A0E0B0E0022E04C0880F59
:10090000991FAA1FBB1F0A94D2F7D4FF10C04FE053
:1009100050E060E070E004C0440F551F661F771F71
:100920002A95D2F7409550956095709503C040E0A8
:1009300050E0BA01C695C695C3708A019B01082B89
:10094000192B2A2B3B2BC901B801C23049F058F4AE
:10095000C13019F00E946806CFC00E945606CCC074
:100960000E947A06C9C00E945406C6C0112319F01D
:100970008C2F817001C08695882309F4BDC02D2F6E
:10098000229526952770220F220F6D2F6F70862FCC
:1009900090E0A0E0B0E0022E04C0880F991FAA1FCB
:1009A000BB1F0A94D2F7D4FF10C04FE050E060E0C4
:1009B00070E004C0440F551F661F771F2A95D2F7B9
:1009C000409550956095709503C040E050E0BA01A5
:1009D000C695C695C3708A019B01082B192B2A2B3B
:1009E0003B2BC901B801C23049F058F4C13019F0AD
:1009F0000E942D0781C00E941B077EC00E943F07F6
:100A00007BC00E948E0678C0CF70112339F08C2FE6
:100A10000E94B4068D2F0E948E036EC08D2F0E94FF
:100A200095038C2F0E94D50667C0D23F21F128F490
:100A3000D03F41F0D13FC1F043C0D33F19F1D43F83
:100A400079F03EC0112341F0053008F051C08C2FE1
:100A50008F710E94FA064CC0063008F049C0F7CFEB
:100A600080913F0282FF18C0112339F08C2F8F71C3
:100A70000E94B4063DC01123C9F38C2F8F710E94D0
:100A8000D50636C0112329F08C2F8F710E949F0646
:100A90002FC00E949A062CC0112349F0CF718C2FD1
:100AA0000E94B40663E08C2F0E94D80B21C081E025
:100AB0000E94F30B0230E0F082E00E94F30B18C0BA
:100AC000112331F0002391F28D2F0E940F0310C0EB
:100AD000002399F2D93349F41FEF27EE33E0115088
:100AE00020403040E1F700C000008D2F0E944203FB
:100AF00088EF8C0D843020F40E94661B0E94A402B3
:100B0000DD20C9F00E94460B80FD15C0F70112825E
:100B10000E94400B0E94B406C7010E94BC050E94BF
:100B2000400BDF91CF911F910F91FF90EF90DF90DD
:100B3000CF900C94D506DF91CF911F910F91FF902C
:100B4000EF90DF90CF9008950F931F93CF93DF9393
:100B5000EC01688179818A810E94F8078C010E94EA
:100B600051070E944206B801CE010E949C03DF910A
:100B7000CF911F910F910895CF93DF93EC0198814E
:100B800089812B813C81232B31F08F3F31F481E02F
:100B90009F3F19F403C081E001C080E080FD1DC0CB
:100BA000CE010E944002811110C00E944A0B88238E
:100BB000A1F08A81882389F080913F0282FD0DC0D7
:100BC00082E0DF91CF910C94F30BCE010E94A4053B
:100BD000CE01DF91CF910C942102DF91CF91089546
:100BE0000E94710B0C94930B809102019091030170
:100BF0000E94F61B0C94F0050E94610B0C94F40506
:100C000092959F70963079F010F4925001C09A50EE
:100C1000923068F4803F69F018F4883E40F409C0CF
:100C2000843F29F406C0883E20F0813F11F080E027
:100C3000089581E00895FC01808191810E94ED0773
:100C40000E9400060895CF93DF9300D000D01F923A
:100C5000CDB7DEB70F900F900F900F900F90DF91F0
:100C6000CF910895CF93DF9300D000D000D0CDB7BF
:100C7000DEB726960FB6F894DEBF0FBECDBFDF916C
:100C8000CF910895089508950C9443060C9444065A
:100C90000E944606609376017093770180937801F5
:100CA000909379010C94F0050C9448060F931F93D0
:100CB00000917601109177012091780130917901AE
:100CC000602B712B822B932B1F910F910C94480654
:100CD0000F931F9300917601109177012091780175
:100CE0003091790160237123822393231F910F9107
:100CF0000C9448060F931F93009176011091770191
:100D000020917801309179016027712782279327FC
:100D10001F910F910C9448060C9443060E948C0678
:100D200060937201709373018093740190937501C5
:100D30000C94F00560E070E0CB010C948E060F93EC
:100D40001F9341E050E060E070E08A019B0104C025
:100D5000000F111F221F331F8A95D2F7C901B80156
:100D60001F910F910C948E060F931F9341E050E05A
:100D700060E070E004C0440F551F661F771F8A951E
:100D8000D2F78091720190917301A0917401B0919A
:100D900075018A019B01082B192B2A2B3B2BC901BA
:100DA000B8011F910F910C948E060F931F9341E091
:100DB00050E060E070E004C0440F551F661F771FCD
:100DC0008A95D2F740955095609570958091720103
:100DD00090917301A0917401B09175018A019B01FA
:100DE000082319232A233B23C901B8011F910F911E
:100DF0000C948E060F931F9341E050E060E070E08A
:100E000004C0440F551F661F771F8A95D2F7809143
:100E1000720190917301A0917401B09175018A01E2
:100E20009B01082719272A273B27C901B8011F91D1
:100E30000F910C948E060F931F93009172011091E5
:100E400073012091740130917501602B712B822BFD
:100E5000932B1F910F910C948E060F931F9300916B
:100E6000720110917301209174013091750160231A
:100E70007123822393231F910F910C948E060F935D
:100E80001F930091720110917301209174013091B0
:100E9000750160277127822793271F910F910C946A
:100EA0008E060895292F220F920F990F890FE82F90
:100EB000E695E695E695877051E001C0550F8A9555
:100EC000EAF785E0E89FF0011124E65BFE4F20E0A1
:100ED00030E070E04081CB01022E02C096958795EC
:100EE0000A94E2F781708195842785238427819372
:100EF0002F5F3F4F2530310569F70895292F220FC5
:100F0000920F990F890F682F669566956695982FB1
:100F1000977085E0689FB001112440E050E080E0C8
:100F2000FB01E40FF51FE65BFE4F208130E0092E48
:100F300002C0369527950A94E2F721703327042ED4
:100F400001C0220F0A94EAF7822B4F5F5F4F4530B2
:100F5000510531F70895BF92CF92DF92EF92FF9241
:100F60000F931F93CF93DF938C01C0907201D090A9
:100F70007301E0907401F090750180917601909179
:100F80007701A0917801B0917901C82AD92AEA2A7B
:100F9000FB2ACFE1D0E0D701C6010C2E04C0B695E4
:100FA000A795979587950A94D2F780FD04C021975D
:100FB00090F7B12C07C0BC2EB8018C2F0E94C00E38
:100FC0000197A9F38B2DDF91CF911F910F91FF9086
:100FD000EF90DF90CF90BF900895CF93DF93EC0117
:100FE0000E94AB07BE010E94C00EDF91CF91089511
:100FF0001F93CF93DF93EB0190914901992321F047
:10100000CB010E94ED0713C0882349F0CB010E9459
:10101000AB07182F682FCE010E94520704C0CB01E6
:101020000E947E07182FBE01812F0E94C00EDF9103
:10103000CF911F9108951F93CF93DF93C0917A01B1
:1010400016E080917B01C81799F0D0E01C9FF00159
:101050001D9FF00D1124E458FE4F408151816281A3
:101060007381848195810E9432062196C770E9CFF1
:10107000DF91CF911F9108954091AC015091AD0146
:101080006091AE017091AF018091B0019091B1017A
:101090000C943206EF92FF920F931F93CF93DF933E
:1010A0008091B10182958F7009F065C08091AE0189
:1010B000882309F460C080917A01F0907B0110913F
:1010C000AC010091AD016091AF017091B00191E070
:1010D0001F3F09F090E0C0910001D0910101292F3C
:1010E00096E0E92E8F1509F446C06115710521F0CF
:1010F0000F3F21F030E003C031E001C0322F90E01B
:1011000030FD36C0E89EF001E99EF00D1124DF01AC
:10111000A458BE4F11963C911197301329C03C91B1
:10112000311326C012963C911297311121C01396AB
:101130004D915C911497461B570B4C175D07C0F4FB
:101140008091B1018F7080618093B101EF57FE4FA4
:1011500080818F70806180838CEA91E00E94BC0561
:10116000DF91CF911F910F91FF90EF900C941B088E
:1011700001968770B7CFDF91CF911F910F91FF90AC
:10118000EF9008959F92AF92BF92CF92DF92EF922D
:10119000FF920F931F93CF93DF93CDB7DEB7619785
:1011A0000FB6F894DEBF0FBECDBF8C0185E0F8010D
:1011B000DE011D9601900D928A95E1F7D8011296F5
:1011C000EC909091AC01E091AD012091AF01309194
:1011D000B0012115310531F0EF3F31F481E09F3F3F
:1011E00019F403C081E001C080E0B82FB1709B2EDC
:1011F00080FD47C1D8014C9111965C9111971396CF
:10120000AD90BC9014978CEAC82E81E0D82EF09057
:10121000AE01B501621B730B2091000130910101F9
:10122000FF2009F4D9C08091B1016217730708F05B
:1012300095C0282F207F09F052C05E1313C04913B8
:1012400011C0FE2CE1100EC08F7080618093B1013F
:101250000E943C08C6010E94BC058091B101F801C2
:1012600085834DC1AB2831F05F3F31F481E04F3FC2
:1012700019F403C081E001C080E080FD03C081E07B
:101280008E2502C080E090E0F82FF170FF2E80FFE5
:101290001CC080917A0120917B0136E0821709F40D
:1012A0000BC190E0389FF001399FF00D1124E458F4
:1012B000FE4F6181561306C06081461303C06281F0
:1012C000E61203C001968770E9CFFE2CEE2009F4E8
:1012D00016C18091B10181608093B10154C05E1349
:1012E00006C0491304C0E11002C0F80199C0C8014A
:1012F0000E941B06882361F1EE2051F12091B1017B
:10130000822F82958F7090E0029774F08091AC01EB
:101310009091AD0198878F831986BB86AA862C870A
:10132000CE0107960E94BC0586E0F801ACEAB1E068
:1013300001900D928A95E1F70E944A080E943C08AC
:101340000AC05E1711F1C8010E941B0681112CC052
:10135000C8010E94BC05FF24F394D1C0282F207F30
:1013600081F77A2DB98AA88A6E2D89890E94230671
:101370008CEA91E00E94BC0586E0D6011D928A9518
:10138000E9F70E943C08F12CBAC04913DCCFE11008
:10139000DACFF8018583C8010E94BC0586E0D6013A
:1013A0001D928A95E9F7ABC0EE2091F22091B10130
:1013B000822F82958F7090E002970CF4B5CF8091C8
:1013C000AC019091AD019A8389831B82BD82AC826E
:1013D0002E83CE010196A6CF6217730708F044C092
:1013E000FE2CEE2009F4B4CF5E1330C049132EC09A
:1013F0002091B10120FD21C0822F82958F70482F4E
:1014000050E041155105C9F0F80125834F305105D1
:1014100041F08F5F982F9295907F822F8F70892B4C
:101420008583C8010E94BC0586E0F801ACEAB1E002
:1014300001900D928A95E1F73CC086E0F801ACEA94
:10144000B1E001900D928A95E1F759C0C8010E9460
:101450001B06811169CF8091B10181608093B10138
:10146000C8010E94BC054BC07A2DB98AA88A6E2D8E
:1014700089890E94230686E0D6011D928A95E9F7A4
:1014800018C0EE2009F464CFC8010E941B06F82E94
:10149000882309F45DCF86E0F801ACEAB1E0019061
:1014A0000D928A95E1F78CEA91E00E9409030E946F
:1014B0004A080E943C0823C04D875E878D859E8523
:1014C0000E94ED07292F22952F70223028F49F705B
:1014D00039F0811105C00BC0243028F49F7049F405
:1014E000805E883020F0C8010E94BC059F2CF92C3A
:1014F00006C0D80115969C91907F91F7F8CF8F2D5B
:1015000061960FB6F894DEBF0FBECDBFDF91CF91CD
:101510001F910F91FF90EF90DF90CF90BF90AF9011
:101520009F9008951F93CF93DF93CDB7DEB72C978D
:101530000FB6F894DEBF0FBECDBF4F8358876987C3
:101540007A878B879C87CE0107960E94C2088823E2
:10155000D1F09F8188852A853B85232B31F08F3FF1
:1015600031F481E09F3F19F403C081E001C080E0C5
:1015700080FD47C04F81588569857A858B859C851C
:101580000E9432063EC086E0FE013796DE011196CB
:1015900001900D928A95E1F7FF81E8856A857B8548
:1015A0006115710531F0EF3F31F481E0FF3F19F42F
:1015B00003C081E001C080E080FD23C020917B0159
:1015C00030E0C90101968770992740917A0150E077
:1015D00084179507F1F1F983EA837D836C8396E0A4
:1015E000929FD001939FB00D1124A458BE4FFE01CD
:1015F000319601900D929A95E1F780937B010E94BC
:101600001B0816E080917A0190917B01891771F196
:10161000189FC001112484589E4F0E94C20888233D
:1016200029F1E0917A011E9FF0011124E458FE4F48
:101630004081518162817381848195810E9432064B
:1016400080917A0190E001968770992780937A01C2
:10165000D9CF0E94FC0510927B0110927A01ECEA2E
:10166000F1E086E0DF011D928A95E9F72C960FB62E
:10167000F894DEBF0FBECDBFDF91CF911F910895CB
:101680008091BA0185958595859508958091BA01D7
:10169000877008959091BA01977081E009F480E015
:1016A00008958091C50108959091C501892B80937B
:1016B000C501089580959091C50189238093C50146
:1016C00008951092C50108959091C401892B8093CB
:1016D000C401089580959091C40189238093C40129
:1016E00008951092C40108958091BB010895089552
:1016F0000C94770B0C94780B90913F0292FD08C0EC
:101700009091BB01981721F08093BB010C947A0B48
:1017100008958091BB01882329F01092BB0180E0DD
:101720000C947A0B0895CF93DF93E0910201F0912E
:1017300003018091C5018083E0910201F0910301D2
:1017400090818091C401892B80838091BB01882383
:1017500081F0E0910201F09103019081892B808357
:1017600080910201909103010E94B01B81110E949F
:10177000890BC0910201D091030148E050E062EB77
:1017800071E0CE010E94A323892B69F088E0FE015D
:10179000A2EBB1E001900D928A95E1F7CE01DF91C5
:1017A000CF910C94791BDF91CF9108950C94770B16
:1017B00090913F0292FD10C098E0899F9001112402
:1017C000262B2093BA010E94B4068091BA01859518
:1017D000859585950C94D60B0C94B4061092BA019D
:1017E00080E00C94D60B2091BA01809582238093DF
:1017F000BA01982F977099F430E0482F082E000C0A
:10180000550B2417350759F090913F0292FD07C000
:101810008595859585950E94D5060C94EE0B0895C7
:1018200090913F0292FB222720F9281769F080FB54
:1018300092F990933F0280913E0290913F020E9464
:10184000580C82E00C94F30B089580913F0282FBC8
:10185000882780F991E089270C94100C81E00C9482
:10186000100C80E00C94100C80E090E00E94C123EA
:1018700021E0893E9E4F09F020E0822F089582E00A
:1018800090E00C94B92383E090E00C94B923CF93BB
:1018900084E090E00E94B923C82F82E290E00E9489
:1018A000B9232C2F30E0A901582BCA01CF910895FC
:1018B000CF93C92F682F84E090E00E94C7236C2F3C
:1018C00082E290E0CF910C94C723AB01BC018FE082
:1018D00090E00C94D923AB01BC0183E190E00C941F
:1018E000D92360E070E0CB010C946B0C60E070E0F9
:1018F000CB010E94650C0C94710C69EE7EEF80E0C8
:1019000090E00E94E52360E082E090E00E94C7231F
:1019100060E083E090E00E94C7231092760110926D
:101920007701109278011092790160E084E090E0F4
:101930000E94C72360E082E290E00E94C72360E03B
:1019400085E090E00E94C72360E086E090E00E947E
:10195000C7236FEF87E090E00E94C72340E050E08C
:10196000BA0188E090E00E94D92360E08DE090E029
:101970000E94C72340E050E0BA0188E190E00E9455
:10198000D92360E087E190E00E94C72340E050E067
:10199000BA018CE190E00E94D92360E070E080E21F
:1019A00090E00E94E52340E050E0BA0188E190E039
:1019B0000E94D9230C94760C0C947D0C682F8EE039
:1019C00090E00C94C7230E94A41C6093D4017093F0
:1019D000D5018093D6019093D7016093D001709385
:1019E000D1018093D2019093D301089585B7806887
:1019F00085BF85B7806885BF08950C94CE11089582
:101A00000C94FF0C0C94FF0C0C94020D0C94FF0C26
:101A10000C94060D0C94FF0C0E94F60C8DED9FE0CB
:101A20000E945C1B0E940A0D0C94080D0E94000D80
:101A30000C94FF0C0E94E00F0C94A3020E948F1CD8
:101A40000E949C0F0E94E8110E941F110E941A0D13
:101A50000E94131480E00E946C140E94F2110C94F6
:101A6000040D8F929F92AF92BF92CF92DF92EF922E
:101A7000FF920F931F93CF93DF93CDB7DEB72A97D3
:101A80000FB6F894DEBF0FBECDBF0E944311982E53
:101A900081110E94E30C86ECA82E81E0B82E00E0B4
:101AA00010E0802E802F0E940410D82EF501C190E6
:101AB0005F01C826B1F40F5F1F4F0A30110589F787
:101AC0008FEF89838A831B820E94981C8160782F04
:101AD0009D838C8349815A816B818D810E94BF02D5
:101AE0002FC08091D80181FD0E940A10E12CFF24B3
:101AF000F3948C2D8F21F1F00E94FD0C882399F036
:101B0000EE828F82DF2081E009F480E088870E94E6
:101B1000981C8160782F9A8789874E815F816885BC
:101B20008A850E94BF02F801EA53FE4F8081F826A1
:101B3000F08206C0E394FF0CF6E0EF12DACFBBCFE1
:101B400081E0911001C080E02A960FB6F894DEBFC4
:101B50000FBECDBFDF91CF911F910F91FF90EF90FE
:101B6000DF90CF90BF90AF909F908F900895CF93CC
:101B70000E94310DC82F0E94CE110E940F16C11174
:101B80000E94CD14CF910C94B402CF93DF930E94A6
:101B9000C50EEC01811523E59207A0F5811532E50C
:101BA000930708F09EC0811540E29407C0F48115A8
:101BB00051E0950708F0CDC0853A910550F4843086
:101BC000910508F0C6C0019709F0C0C081E090E01F
:101BD000C1C0805E9109089708F4BBC0B7C0C115A9
:101BE00081E5D80708F077C0C11520E5D20708F0D5
:101BF00051C0C11530E4D30708F4A8C0DF70CE018E
:101C0000906AA8C0811546E5940700F5811555E551
:101C1000950708F081C0C11584E5D80708F076C0A3
:101C2000CE018370992721E030E002C0220F331FDC
:101C30008A95E2F79C2F9695969540E2949FE00155
:101C40001124C22BD32BCE019A6884C081152AE5BA
:101C5000920780F4811539E5930708F066C0811575
:101C600048E5940708F472C0D82FCC27CE01806FC6
:101C7000906A70C090568115904208F067C08D2F11
:101C80008F710E94590FDD27D0628F71AE01582BE2
:101C9000CA0160C0CE0174E0969587957A95E1F708
:101CA000282F23703C2F337081E090E002C0880F12
:101CB000991F3A95E2F79C68AC01522B9A019C2F30
:101CC0009F709695969550E2959FE0011124C90169
:101CD0008C2B9D2B3FC0DC2FCC27CE01816F906ACF
:101CE00039C08370992721E030E002C0220F331FF2
:101CF0008A95E2F79C2F9695969580E2989FE00151
:101D00001124C22BD32BCE019C6824C0DC2FCC27FE
:101D1000CE01846F906A1EC00E94590F8F7190E0AF
:101D2000D82FCC27CE01906215C08F700E94590F1A
:101D300094E0D695C7959A95E1F7CF70D0E0DC2F67
:101D4000CC27D0699E01282BC90104C080E090E017
:101D500001C0CE01DF91CF9108952CE3829FC00195
:101D60001124FC0126E0729FE00DF11D1124E60F05
:101D7000F11DEE0FFF1FE852FF4F859194910895DA
:101D80000E94AD0E0E94C50D08958238910569F13B
:101D9000B0F48133910509F46DC048F4893291059E
:101DA00009F463C08A32910509F469C00895853346
:101DB000910509F455C089339105B9F00895833E22
:101DC000910569F138F4803E9105B1F0823E9105AC
:101DD00009F10895863E9105A9F1873E9105B9F173
:101DE000843E910509F064C023C020913E0220FD8D
:101DF0004FC021FD4DC0089580913E0280FD44C03A
:101E000080913F0280FF44C080913E0284FD42C029
:101E100083EE4DC080913E0282FF38C0F5CF8091A5
:101E20003E0282FD33C080913F0280FD31C0ECCF85
:101E300080913F0281FF32C080913E0284FD2AC022
:101E400087EE35C080913E0283FF26C0F5CF80919A
:101E50003E0283FD21C080913F0281FD1FC0ECCF77
:101E600080913E0285FD1CC01DC080913E0285FD13
:101E700019C016C080913E0286FD16C017C0809121
:101E80003E0286FD13C010C089E311C082EE0FC070
:101E900080EE0DC080E00BC086EE09C084EE07C066
:101EA00089E205C085E303C08AE201C081E390E0D6
:101EB000089590913E0292FF0DC0282F287128307E
:101EC00019F4877F846006C0282F2471243011F410
:101ED0008B7F886093FF0DC0282F2871283119F45B
:101EE000877E846106C0282F2471243111F48B7EF3
:101EF000886120913F0220FF0DC0382F38713830A3
:101F000019F4877F816006C0382F3171313011F4A8
:101F10008E7F886021FF0DC0282F2871283119F489
:101F2000877E816106C0282F2171213111F48E7EB8
:101F3000886194FD877E089510923A0210923B02C8
:101F400010923C0210923D020895CF92DF92EF92E0
:101F5000FF926B017C010E94CE1181110EC00E9484
:101F6000A41CC61AD70AE80AF90AC0923A02D0920B
:101F70003B02E0923C02F0923D02FF90EF90DF9036
:101F8000CF9008950F931F930E94CE11882321F0C4
:101F90001F910F910C94A41C0E94A41C00913A0262
:101FA00010913B0220913C0230913D02600F711F65
:101FB000821F931F1F910F91089580E00895089547
:101FC0000E94340C811102C00E94DC0C0E943F0C64
:101FD0008093D8010E94470C90933F0280933E0269
:101FE0000E94DF0F0E94430C682F70E080E090E0B9
:101FF0000E94540660917201709173018091740186
:10200000909175010C948C06E82FF0E0E55BFD4F94
:1020100080810895089580EA8A95F1F7089500C0B7
:1020200008950C940B1008950C9413100C94141034
:102030000C9413100C9418100C941310FF920F931F
:102040001F93CF93DF9300D000D01F92CDB7DEB7A0
:102050000E94CE11609155028823E9F185E0F82EA7
:102060008E010F5F1F4FF8018F2D11928A95E9F7AE
:10207000862F90E0B801855B9D4F0E940012882357
:1020800089F08091400290E045E050E0B801855B26
:102090009D4F0E94A32321E02093D901892B61F455
:1020A00010E016C08091D9018823D1F3F801119274
:1020B000FA94E9F71092D901A0914002B0E0A55B33
:1020C000BD4F85E0F80101900D928A95E1F711E08E
:1020D0000E942E020DC070E0655B7D4F8091400232
:1020E00090E0855B9D4F0E948A120E941C1010E0B8
:1020F000812F0F900F900F900F900F90DF91CF9145
:102100001F910F91FF900895F894E82FE295EF70DA
:10211000F0E031A1282F2F7081E090E001C0880FFE
:102120002A95EAF7982F9095932391A392A1892B52
:1021300082A3789408950F931F93CF93DF93C7E3FF
:10214000D1E089918F3F11F00E94841081E0CC335F
:10215000D807B9F7C1E3D1E007E311E089918F3FD8
:1021600011F00E9484100C171D07C1F7DF91CF9169
:102170001F910F910895CF92DF92EF92FF920F93EC
:102180001F93CF93DF938C01C62FD0E0CE01895CE3
:102190009E4F7C01FC0190819F3F09F447C0D62EE1
:1021A000F894E92FE295EF70F0E081A19F7021E0B3
:1021B00030E001C0220F9A95EAF7822B81A382A119
:1021C0002095282322A378940E940F10E1E3F1E0E8
:1021D00047E351E031E0C12C21912F3F89F0A22F3C
:1021E000A295AF70B0E090968C9190E02F7002C0F5
:1021F000959587952A95E2F780FD02C0832F01C04F
:1022000080E0C82A330F4E175F0731F7F70180814E
:102210008F3F11F00E94841061E0C11001C060E0A6
:102220008D2D0E941110C00FD11FC882DF91CF9158
:102230001F910F91FF90EF90DF90CF9008958091C4
:10224000040180910401811102C095E001C090E079
:102250009093550285E0891B809340020E949B1059
:102260008AE0EBE4F2E0DF01982F1D929A95E9F7FE
:10227000E1E4F2E0DF011D928A95E9F785E00E9432
:1022800097110C942C02EF92FF920F931F93CF9310
:10229000DF93CDB7DEB72A970FB6F894DEBF0FBE37
:1022A000CDBF8E010F5F1F4F8AE0F80111928A9512
:1022B000E9F7F12C6F2DC8010E94BB10F394F5E0F3
:1022C000FF12F8CF4AE050E0B80181E492E00E94AA
:1022D000A3237C0121E0892B09F420E0E114F1041F
:1022E00041F08AE0F801A1E4B2E001900D928A95F4
:1022F000E1F76091550270E0655B7D4F45E081E458
:1023000092E00E949811EF2819F40E941E1002C05A
:1023100081E090E02A960FB6F894DEBF0FBECDBFE5
:10232000DF91CF911F910F91FF90EF900895089545
:10233000FF920F931F93CF93DF938C01F62ED72F2D
:10234000C42F222349F081E08093DC010E94981C75
:102350009093DB018093DA018091DC018823C1F046
:102360008091DA019091DB010E94B01C059780F00A
:10237000EF2DFD2FD8014C2F50E0CD01801B910B8C
:10238000841795071CF48D918193F7CF1092DC018F
:10239000DF91CF911F910F91FF9008958091DF0100
:1023A00081110DC00E947C23811102C082E001C016
:1023B00081E08093DF01823011F40E94772381E075
:1023C0009091DF01913009F080E008950C94CE11D6
:1023D0000E94E611809304010E94CE1181110C9499
:1023E000381208950E94CE11811102C00C943A1245
:1023F000089581E09091E0019A3008F080E008951E
:102400000F931F93CF93DF93EC018B018091E00139
:102410008A3038F4B801CE010E94881281111DC0A3
:102420000AC08091DD019091DE010E94B01C843FC2
:10243000914080F715C08091E0018F3F19F08F5FC8
:102440008093E0018091E0018A3060F00E94981C46
:102450009093DE018093DD0103C01092E00102C081
:1024600080E001C081E0DF91CF911F910F9108952D
:102470000C94F5190C94F819DF92EF92FF920F93D8
:102480001F93CF93DF937901C82F880FDD0B411580
:102490005105A9F0FE0193E0EE0FFF1F9A95E1F7B9
:1024A000EB5FFE4F818192818F519E4F208130E002
:1024B0004217530708F49A01A9010E94B023CE01E4
:1024C0000E94E11AD82E8823D1F001151105B9F028
:1024D00083E0CC0FDD1F8A95E1F7FE01EB5FFE4F35
:1024E000438150E00417150708F4A801CB5FDE4FC5
:1024F0006C817D816F517E4FC7010E94B0238D2D6D
:10250000DF91CF911F910F91FF90EF90DF90089591
:102510000C94A4130C94C0130F931F93CF93DF93C9
:1025200000D000D0CDB7DEB76091F8017091F9010D
:102530008091FA019091FB010E94BF1C64367105E5
:102540008105910528F10E94C20FDC01CB010296A2
:10255000A11DB11D89839A83AB83BC8300E010E089
:1025600020E030E044E050E0BE016F5F7F4F82E04A
:102570000E943C12182F882361F00E94A41C6093D3
:10258000F8017093F9018093FA019093FB0101C067
:1025900011E0812F0F900F900F900F90DF91CF914E
:1025A0001F910F910895AF92BF92CF92DF92EF9259
:1025B000FF920F931F93CF93DF937C015B016A011E
:1025C0000E94F911811103C001E010E002C00AE08D
:1025D00010E0C1E0D0E0F894B501C701F60109951B
:1025E0007894811115C021960C171D0794F0CC9F8B
:1025F0009001CD9F300D300D112480E090E045E337
:102600004A95F1F70000019682179307C1F7E3CFCF
:1026100081E0DF91CF911F910F91FF90EF90DF90BC
:10262000CF90BF90AF900895AF92BF92CF92DF92BC
:10263000EF92FF920F931F93CF93DF9300D000D0C0
:1026400000D0CDB7DEB77B01C0903C01D0903D01FA
:1026500001E010E09E012A5F3F4F40E050E060E063
:1026600070E080E00E943C12182F882309F43EC0DD
:1026700056018FEFA81AB80A6091F4017091F50124
:102680008091F6019091F7010E94BF1C643671059C
:102690008105910518F105E010E09E012F5F3F4F85
:1026A00040E050E060E070E081E00E943C12182FB2
:1026B00065E070E0C5010E94141491E02E8128139A
:1026C00090E0192339F10E94A41C6093F4017093E7
:1026D000F5018093F6019093F70111C065E070E079
:1026E000C5010E9414149E818913D5CF85E0F6019F
:1026F0003196DE01119601900D928A95E1F7112332
:1027000049F085E0FE013196AFEEB1E001900D9207
:102710008A95E1F785E0EFEEF1E0D70101900D92A7
:102720008A95E1F7812F26960FB6F894DEBF0FBE8B
:10273000CDBFDF91CF911F910F91FF90EF90DF9070
:10274000CF90BF90AF9008950F931F93CF93DF93D7
:10275000EC018B0144E153E10E94D312882351F034
:102760004CE852E1B801CE01DF91CF911F910F915A
:102770000C94D31280E0DF91CF911F910F910895B7
:102780000F931F93CF93DF93F894C0913C01D091A6
:102790003D01CE01019625E0FB01DC0101900D9287
:1027A0002A95E1F765E070E00E941414888378941C
:1027B000F8946E817F81888599850091EB01109155
:1027C000EC012091ED013091EE0160177107820755
:1027D000930751F06093EB017093EC018093ED014E
:1027E0009093EE010E94A50F7894DF91CF911F91F5
:1027F0000F9108950E94501E0E941E0D0C945C1EA5
:102800000E94601E0E94B70D0C947A1E0E94361C16
:102810000E94371E0E940C0D0E94FA130E940014A1
:102820000E94160DFBCF0895FC01680F791F8FEFF2
:1028300091E3E617F70771F02191822728E030E055
:1028400087FF03C0880F892701C0880F21503109F5
:10285000B9F7EFCF0895EF92FF920F931F93CF93A5
:10286000DF93EC017B0164E670E088E70E948F183B
:102870008C01EC0EFD1ECE15DF0561F017FD0AC0C0
:10288000FE01849164E670E00E9410198C0121968B
:10289000892B89F30E949419C801DF91CF911F9170
:1028A0000F91FF90EF90089508950C945414E6E56D
:1028B000F2E080E092E0DF019C011D922150304067
:1028C000E1F7F0935D04E0935C048FEF9FEF90934A
:1028D00022028093210208950E9455140E945414EC
:1028E00080931D0280FD02C080E801C080E28093D9
:1028F0001C020E9489186DE070E08FEC92E00E944B
:102900002B14892B11F080E0089580911D0263E063
:1029100070E081FD03C08CEC92E002C089EC92E093
:102920000E942B14892B79F76DE070E08CEB92E01C
:102930000E942B14892B39F70E94A41CDC01CB01C7
:10294000805A9541AF4FBF4F8093580490935904DC
:10295000A0935A04B0935B040E94571481E08093C3
:10296000200280931F0210921E02089520911C02E3
:1029700036E0839FC0011124629F800D911D1124B8
:10298000811522E0920714F080E090E08A5A9D4F72
:1029900090935D0480935C040895809120028823C5
:1029A000F9F00E94A41CDC01CB01805A9541AF4F85
:1029B000BF4F8093580490935904A0935A04B09346
:1029C0005B0480911F0281110BC062E070E08AEB12
:1029D00092E00E942B14892B19F481E080931F024E
:1029E00080911F0208956F927F928F929F92AF9273
:1029F000BF92CF92DF92EF92FF920F931F93CF93EC
:102A0000DF9380912002882309F4DCC02091210209
:102A1000309122022115310509F4D4C080911E02A3
:102A20008111D0C061E070E0082F10E03B01082E5A
:102A300002C0660C771C0A94E2F7A90146215721CF
:102A4000452B11F48F5FF0CF90911D02980165E046
:102A5000220F331F6A95E1F790FD12C08295880F0F
:102A6000807680931F01220F232F221F330B319575
:102A700020932201815E809320011092230112C0D5
:102A800045E0369527954A95E1F7220F220F220F50
:102A900020931F0110922201295F2093200183E0DF
:102AA0008093230124E630E047E050E06DE171E0DF
:102AB00088E70E944019892B09F084C080911D028B
:102AC00080FD23C0A80195E0440F551F9A95E1F7BA
:102AD0004A5A5D4F04E610E020E230E060E488E707
:102AE0000E946719892B09F06DC00E94CD14E30183
:102AF000C095D0958091210290912202C823D923BC
:102B0000D0932202C09321025DC080E2ECEFF1E09D
:102B1000DF011D928A95E9F785E0000F111F8A9564
:102B2000E1F7A2E4B1E04EE351E0992493942D91B2
:102B3000EA018991AE01B801680F711D6A5A7D4F93
:102B400030E024503E4FF90197E07F01E21AF30A8A
:102B5000A92C01C0AA0CEA94EAF77B01B12CE70189
:102B600089917E018A21892E8B18D82DD770CD2E80
:102B70000D2E000CDD08C82F01C0CC0FDA95EAF746
:102B8000D194C194D108D7E0CD22DD2401C086952F
:102B9000CA94EAF78C2BD0808D298083B39488E087
:102BA000B812DDCF915031969F3F79F6C1E0A6343F
:102BB000BC0709F0BCCF04E610E020E230E04CEFA7
:102BC00051E08CCFDF91CF911F910F91FF90EF904B
:102BD000DF90CF90BF90AF909F908F907F906F903D
:102BE00008958091200290911F02882389F09923F3
:102BF00069F062E070E088EB92E00E942B14892B70
:102C000019F080911F02089510921F0290911F02E7
:102C100081E08927089581E008950C940B160F93A5
:102C20001F9380912002882399F1809156049091FE
:102C300057040E94B01CC29760F00E94981C9093A9
:102C400057048093560460E080E00E94B6140E940E
:102C50000D160E94F31480911F028823C9F00E9470
:102C6000A41C009158041091590420915A043091E9
:102C70005B04DC01CB01801B910BA20BB30B8F3FDC
:102C80009F4FAF4FBF4720F41F910F910C94F11548
:102C90001F910F910895CF93DF93EC01FB01828187
:102CA000882309F43CC1C430FDE5DF0760F4CB3F65
:102CB0009CE5D90788F49E0122503C45243131051A
:102CC00008F02EC109C0C236EDE5DE0729F0C63A8C
:102CD000FDE5DF0709F024C10E94470C90933F02F5
:102CE00080933E02C1318CE5D80709F4C6C008F0D4
:102CF00042C0C930ECE5DE0709F49BC000F5C530E1
:102D00008CE5D80709F485C078F4C330ECE5DE071C
:102D100009F478C008F07AC0C230DC4509F0F5C08B
:102D200080913E028160EFC0C7309CE5D90709F46D
:102D300078C008F07AC080913E028061E4C0CD3056
:102D4000FCE5DF0709F487C058F4CB309CE5D907D0
:102D500009F479C008F07BC080913E0288606FC0A2
:102D6000CF30FCE5DF0709F480C008F082C0809115
:102D70003E02877FC8C0CE3F9CE5D90709F471C0E9
:102D800000F5C531FCE5DF0709F485C068F4C331FF
:102D90009CE5D90709F475C008F095C00E94FC05B0
:102DA00080913E028F77AFC0CC3FFCE5DF07A9F1F1
:102DB00008F054C0CB3FDC4509F0A7C080913F022A
:102DC00040C0C230EDE5DE0709F489C058F4C115F2
:102DD0008DE5D80709F45AC008F069C080913F0218
:102DE00082602FC0C236EDE5DE0709F47CC0C63A2A
:102DF000FDE5DF0709F481C0C330DD4509F085C07A
:102E000080E06EC080913E0282607DC080913E0273
:102E100016C080913E02886076C080913F02826039
:102E20004FC080913E0280626EC080913E028064FD
:102E30006AC00E94FC0580913E02806864C0846084
:102E400062C081603DC080913E028E7F5CC08091F7
:102E50003E028D7F58C080913E0216C080913F0295
:102E600018C080913F028D7F2BC080913E028F7EE3
:102E70004AC080913E028F7D46C080913E028F7B8A
:102E800042C080913E02877F8B7F3DC080913F0290
:102E90008D7F8E7F15C080913E0282FB222720F914
:102EA00091E0922790FB82F990FB83F92CC08091EE
:102EB0003F02982F909591708E7F892B90FB81F91E
:102EC00080933F0222C00E94FC0580913E0287FB56
:102ED000222720F991E0922790FB87F914C081E026
:102EE0000E94DE0C12C080913E0284FB222720F952
:102EF00091E0922790FB84F906C080913E02982FC2
:102F0000909590FB80F980933E0280913E029091D3
:102F10003F020E94580C0E94FC0580E001C081E045
:102F2000DF91CF910895CF93DF9386319C4541F592
:102F3000EB010E94510B982F8A8120910201309160
:102F40000301882379F09A7A81E009F480E0809384
:102F50002302911102C069E201C065E3C9010E9428
:102F6000F21B0AC080912302811102C069E201C0F4
:102F700065E3C9010E94F41B0E94930B80E001C02D
:102F800081E0DF91CF9108950F931F93CF93DF934B
:102F9000C42FD22FFC0182818823C9F040932602DE
:102FA0000E94981C909325028093240280E28C0F4B
:102FB000883008F057C0C77081E001C0880FCA95FB
:102FC000EAF7DF91CF911F910F910C948E038091BE
:102FD0002602481330C080912402909125020E945D
:102FE000B01C883C910538F510E21D0FCD17B9F0E3
:102FF00080E28C0F883040F4C77081E001C0880FF8
:10300000CA95EAF70E949503183028F581E09D2FB4
:10301000977001C0880F9A95EAF70E948E03802F5F
:103020000E9485031830F0F4D77081E001C0880F4A
:10303000DA95EAF70AC080E28C0F883098F4C770FE
:1030400081E001C0880FCA95EAF7DF91CF911F9107
:103050000F910C949503802FDF91CF911F910F91C9
:103060000C948503DF91CF911F910F9108950F93D9
:103070009C01CB01243F4CE5340731F188F4293D14
:10308000FCE53F07D9F02A3D4CE5340779F1283DAE
:103090003C45A9F506E221EE41EE68ED7CE52BC04A
:1030A000263FFCE53F07E1F0A8F0273F3C4539F516
:1030B00007E225EE46EE67EF7CE51DC007E225EE50
:1030C00045EE69ED7CE517C006E221EE40EE64EFC7
:1030D0007CE511C007E225EE44EE65EF7CE50BC010
:1030E00006E221EE42EE66EF7CE505C008E221E053
:1030F00045EE6AED7CE50E94C41780E008C0FC0143
:103100008281882319F01092260201C081E00F917C
:1031100008951092B9008CE08093B80008959F92B2
:10312000AF92BF92CF92DF92EF92FF920F931F93D5
:10313000CF93DF93B82EEB010E94981C6C01C43131
:10314000D10558F0CF3F8FEFD80759F0CE0164E199
:1031500070E00E9489237B0107C0EE24E394F12CE8
:1031600003C025E0E22EF12C84E8A82E94EA992EE3
:103170001092BC009092BC000E94981C8C0180911F
:10318000BC0087FD08C00E94981C801B910B8E1507
:103190009F05A8F32AC08091B900887F883041F04C
:1031A0008091B900887F803119F00FEF1FEF1FC0A9
:1031B000B092BB00A092BC000E94981C8C01809130
:1031C000BC0087FD08C00E94981C801B910B8E15C7
:1031D0009F05A8F30AC08091B900887F883111F05B
:1031E000803419F700E010E00EC00EEF1FEFCF3F64
:1031F0008FEFD80709F4BCCFC6010E94B01C8C1712
:103200009D0708F4B5CFC801DF91CF911F910F91B1
:10321000FF90EF90DF90CF90BF90AF909F90089578
:103220000F931F93CF93DF93EB018093BB0084E850
:103230008093BC000E94981C8C018091BC0087FD8B
:103240000EC0CF3F8FEFD807C1F30E94981C801BA0
:10325000910B8C179D0788F38EEF9FEF0CC0209188
:10326000B900287F81E090E0283211F480E090E0FE
:10327000919581959109DF91CF911F910F910895BB
:10328000CF92DF92EF92FF920F931F93CF93DF9332
:103290006B018A017901B9010E948F18E6010C0DBA
:1032A0001D1DC017D10761F424E92093BC00DF91F4
:1032B000CF911F910F91FF90EF90DF90CF900895E5
:1032C00097FDF2CFB70189910E941019EACFCF92F2
:1032D000DF92EF92FF920F931F93CF93DF93C62F4E
:1032E0006A017901B8010E948F1897FD11C0B801D9
:1032F0008C2F0E941019E601EC0CFD1CCE15DF0589
:1033000039F097FD05C0B80189910E941019F6CFD8
:1033100024E92093BC00DF91CF911F910F91FF9082
:10332000EF90DF90CF90089584E98093BC000895DA
:103330008EE14A9B02C08150E1F74A9BFECF08957F
:103340005A9880E28A95F1F75A9A0895FC012AE08A
:103350002A95F1F728E090E080E031E040E14A95DD
:10336000F1F7880F4A9B02C08160932700C00000DC
:1033700040E14A95F1F7215089F720E12A95F1F7CC
:1033800029B100C0000030E13A95F1F722FB222775
:1033900020F992272081920F90830895EF92FF9257
:1033A0000F931F93CF93DF931F92CDB7DEB7198290
:1033B0008C017C01E60EF11C0E151F0551F00E94D8
:1033C0009819CE0101960E94A619F80181938F01E8
:1033D000F3CF81E09981911180E00F90DF91CF913F
:1033E0001F910F91FF90EF900895529A5A9A089565
:1033F00052985A9AEA9AE9E6F0E080818F7C8083BD
:103400000895615091E001C0990F6A95EAF720E0B4
:1034100031E0992361F0492F482319F05A9A232764
:1034200001C05A9840E24A95F1F79695F2CF2223CF
:1034300011F05A9A01C05A9880E28A95F1F75A9889
:103440000895FF920F931F93CF93DF93EC018C01AC
:10345000060F111DC017D10741F0F9900E94A01965
:1034600068E08F2D0E94011AF5CFDF91CF911F9157
:103470000F91FF9008951F920F920FB60F92112493
:103480000F931F932F933F934F935F936F937F936C
:103490008F939F93AF93BF93EF93FF93CF93DF935C
:1034A0001F92CDB7DEB719820E949819CE010196FE
:1034B0000E94A619082F069506950695902F9695B9
:1034C0009570202F2570920F292F23709695969531
:1034D000920F877089135FC0898181115CC00430AD
:1034E00008F059C080E18A95F1F75A9A529A82E021
:1034F0008A95F1F700C05A9888E0089F800111244E
:10350000D801AB5FBE4F1696ED91FC91179730979F
:10351000A9F060913C0170913D0114962D913C9170
:103520001597260F371F11968D919C911297680F52
:10353000791F13964C9113978C910995F801EB5FC5
:10354000FE4F6381662351F080913C0190913D01D3
:1035500024813581820F931F0E94211A0E94A01995
:1035600080E18A95F1F75A9852985A9A80E18A95A3
:10357000F1F7F801EB5FFE4F6081662351F0809117
:103580003C0190913D0121813281820F931F0E9465
:10359000CE190E9498190F90DF91CF91FF91EF9172
:1035A000BF91AF919F918F917F916F915F914F915B
:1035B0003F912F911F910F910F900FBE0F901F9071
:1035C00018950F931F93CF93DF93843091050CF0E0
:1035D0006DC0EC01F894529A5A9885E08A95F1F7FB
:1035E00000009C2F969595702C2F2570920F892F97
:1035F00083709695969523E0CC0FDD1F2A95E1F711
:10360000980F8E01092B0E94A01984E08A95F1F78A
:1036100000C068E0802F0E94011A80E18A95F1F7CE
:1036200052985A9A4A9902C000C0FCCF87E090E0B5
:103630004A9B08C0019721F4529A5A9A789436C04E
:1036400000C0F6CFFE01EB5FFE4F6381662381F081
:1036500080913C0190913D0124813581820F931F1F
:103660000E94CE19811104C0529A5A9A78941FC0B0
:103670000E94981980E28A95F1F75A98529A80E14F
:103680008A95F1F7CB5FDE4F6881662351F0809118
:103690003C0190913D0129813A81820F931F0E9444
:1036A000211A0E94A019789481E001C080E0DF9186
:1036B000CF911F910F9108959093470180934601F8
:1036C000089590932D0280932C0208950E94CE11AC
:1036D000811103C0809127020895E0912C02F0919E
:1036E0002D02309721F00190F081E02D099480E0C7
:1036F0000895E0912C02F0912D02309721F0028084
:10370000F381E02D0994089520912A0230912B0233
:103710002817390771F090932B0280932A02E091C9
:103720002C02F0912D02309721F00680F781E02DD8
:103730000994089520912802309129022817390709
:1037400071F09093290280932802E0912C02F0916D
:103750002D02309721F00084F185E02D0994089521
:10376000FC01329697E080E0915029F021912223CC
:10377000D9F38F5FF9CF0895662349F0FC013296A3
:1037800008962191621729F0E817F907D1F780E030
:10379000089581E008959C01FC0132969FEF80E03E
:1037A0004191461789F09F3F19F4411101C0982FAC
:1037B0008F5F8630A9F79F3F39F0F901E90FF11DBE
:1037C00097FDFA956283089508959C012A5F3F4F03
:1037D000FC014281461301C01282019682179307B1
:1037E000B9F708950C94CB1B0C94E51B029626E0C8
:1037F000FC0111922A95E9F7089508950C94FD1B98
:1038000083E080932E020C94FE1B811102C081E0A4
:1038100001C082E080932E020C94FE1B0C94051CC8
:1038200081E080932E020C94FE1B0C94101C0895D2
:103830000C94171C0C94181C0C94171C0C94171C3B
:103840000C94171CCF930E941E1C0E9443110E94CF
:103850001C1CC0E08C2F0E940410811104C0CF5F9B
:10386000CA30C1F701C081E0CF91089508951F9239
:103870000F920FB60F9211248F939F93AF93BF9324
:1038800080912F02811113C080915E0490915F049A
:10389000A0916004B09161044196A11DB11D809377
:1038A0005E0490935F04A0936004B0936104BF91A1
:1038B000AF919F918F910F900FBE0F901F90189511
:1038C00080916604843031F10E94920210922F029E
:1038D00020E488E190E00FB6F894A895809360000A
:1038E0000FBE2093600083B7817F846083BF83B75E
:1038F000816083BF7894889583B78E7F83BF0FB62E
:10390000F894A8958091600088618093600010927F
:1039100060000FBE08950E94FC050C94980282E09E
:1039200084BD93E095BD9AEF97BD80936E00089596
:103930002FB7F89480915E0490915F04A091600489
:10394000B09161042FBF08952FB7F89460915E0481
:1039500070915F0480916004909161042FBF08957D
:103960009C014FB7F89480915E0490915F04A09100
:103970006004B09161044FBF821B930B0895CF92F6
:10398000DF92EF92FF922FB7F894C0905E04D09030
:103990005F04E0906004F09061042FBFA7019601DE
:1039A000261B370B480B590BCA01B901FF90EF904A
:1039B000DF90CF90089578941F920F920FB60F92D8
:1039C00011248F939F93AF93BF9380915E04909146
:1039D0005F04A0916004B09161040196A11DB11D26
:1039E00080935E0490935F04A0936004B09361049D
:1039F000BF91AF919F918F910F900FBE0F901F902D
:103A0000189587E797E790930108809300089AE05C
:103A100088E10FB6F894A895809360000FBE90934C
:103A20006000FFCF80913802089508950895CF93E4
:103A3000DF9321E02093E9002FEF3091E80021503F
:103A400035FD06C035ED3A95F1F700002111F5CFAF
:103A50002091E80025FF14C0EC0140E050E068E050
:103A600070E00E94D91E8091E8008E778093E80074
:103A700088E0FE01A0E3B2E001900D928A95E1F7A3
:103A8000DF91CF9108950895089580916504811183
:103A900009C00E946A200E94C7208091E2008460D1
:103AA0008093E20008951092650408950C94151C0B
:103AB0006091620481E0611101C080E00C94001CFF
:103AC0009091660481E0943009F080E06091620496
:103AD0000C94051C42E061EC81E00E94E31F909190
:103AE000660481E0943009F080E0609162040C94F7
:103AF0000E1C80916804833009F461C030F4813079
:103B000071F0823009F49AC008958A3009F486C0B1
:103B10008B3009F46CC0893009F0A8C020C08091B6
:103B20006704813A09F0A2C08091E800877F809302
:103B3000E80080916B0490916C04892B21F468E07B
:103B400080E392E003C060E080E090E070E00E94DB
:103B5000241F8091E8008B778093E800089580917E
:103B60006704813209F082C080916B0490916C04EB
:103B7000892B09F07BC08091E800877F8093E80063
:103B80008091E80082FD05C0809166048111F8CF24
:103B90006DC02091F3008091F20090E0922B02978B
:103BA00031F48091F100813011F0863021F4809160
:103BB000F100809338028091E8008B7753C08091A8
:103BC0006704813A09F052C080916B0490916C04B3
:103BD000892B09F04BC08091E800877F8093E80033
:103BE0008091E80080FFFCCF8091300136C0809149
:103BF00067048132D9F580916B0490916C04892B14
:103C0000A9F58091E800877F8093E8000E94182042
:103C100080916904809330010C94FC0580916704C5
:103C2000813221F58091E800877F8093E8000E942F
:103C3000182080916A048093390208958091670466
:103C4000813AA1F48091E800877F8093E800809119
:103C5000E80080FFFCCF809139028093F1008091D1
:103C6000E8008E778093E8000C941820089584B7BC
:103C7000877F84BF0FB6F894A89580916000886113
:103C800080936000109260000FBE90E080E80FB655
:103C9000F89480936100909361000FBE0C94101C07
:103CA0000E946A200E94C720E2EEF0E080818460DA
:103CB000808378940C945C2384E291E00C94611BE3
:103CC000809166048530A9F480916604853079F48A
:103CD0000E94601C809164048823B1F30E94221C1E
:103CE000882391F30E94C31E0E94FC05EDCF0C9423
:103CF0008B1C089508950C947D1E292F33272330A3
:103D00003105C1F058F42130310579F02230310508
:103D100091F582E290E022E033E031C021323105BA
:103D2000E1F02232310501F126C082E190E024E287
:103D300033E025C099278130910549F028F002979A
:103D4000D1F4ECEDF2E005C0EEEFF2E002C0ECEEF3
:103D5000F2E0849190E09F0112C0672B61F489E04A
:103D600090E024E133E00BC0672B29F480E490E07D
:103D700026E333E004C080E090E020E030E0FA0188
:103D800031832083089580E189BD82E189BD09B432
:103D900000FEFDCF8091D8008F7D8093D800809168
:103DA000E00082608093E0008091E00081FDFCCF24
:103DB0000895CF92DF92EF92FF920F931F93CF93CC
:103DC000DF93EC018B017A010E943720811133C00F
:103DD000E114F10439F0F70180819181081B190B7E
:103DE000C80FD91FC12CD12C0115110519F18091D3
:103DF000E80085FD16C08091E8008E778093E8008A
:103E0000E114F10449F0F70180819181C80ED91EB7
:103E1000D182C08285E00FC00E943720882321F321
:103E20000AC089918093F10001501109FFEFCF1A68
:103E3000DF0ADACF80E0DF91CF911F910F91FF90E1
:103E4000EF90DF90CF90089520916D0430916E0433
:103E50002617370748F06115710539F42091E800FD
:103E60002E772093E80001C0B901FC0120E0611524
:103E7000710579F1809166048823F1F18530F1F1C3
:103E80008091E80083FD3CC08091E80082FD2EC057
:103E90008091E80080FFEBCF2091F3008091F20049
:103EA00090E0922B6115710551F08830910538F43E
:103EB00021912093F100615071090196F3CF21E027
:103EC000089709F020E08091E8008E778093E80061
:103ED000CECF2111CFCF0AC080916604882361F034
:103EE000853061F08091E80083FD0AC08091E80090
:103EF00082FFF2CF80E0089582E0089583E0089584
:103F000081E0089520916D0430916E0426173707E3
:103F100048F06115710539F42091E8002E7720935F
:103F2000E80001C0B901FC0120E06115710591F1C3
:103F300080916604882309F440C0853009F43FC0AD
:103F40008091E80083FD3DC08091E80082FD2FC094
:103F50008091E80080FFE9CF2091F3008091F2008A
:103F600090E0922B6115710559F08830910540F46D
:103F700024912093F1003196615071090196F2CF9E
:103F800021E0089709F020E08091E8008E77809387
:103F9000E800CBCF2111CCCF0AC0809166048823E2
:103FA00061F0853061F08091E80083FD0AC0809166
:103FB000E80082FFF2CF80E0089582E0089583E078
:103FC000089581E00895982F973068F59093E9005F
:103FD000981739F07091EC002091ED005091F000AD
:103FE00003C0242F762F50E021FD02C09F5FECCF4D
:103FF0003091EB003E7F3093EB003091ED003D7F40
:104000003093ED003091EB0031603093EB00709312
:10401000EC002093ED005093F0002091EE0027FD7E
:10402000E5CF80E008958F708093E90081E00895E6
:104030008091670487FF11C08091E80082FD05C070
:10404000809166048111F8CF11C08091E8008B77D0
:104050000BC080916604882349F08091E80080FFBE
:10406000F8CF8091E8008E778093E8000895209142
:10407000E4003091E50095E64091EC00842F8170DA
:1040800040FF23C08091E80080FD1DC08091660440
:10409000882399F0853099F08091EB0085FD11C05F
:1040A0004091E4005091E5002417350729F3915021
:1040B00011F09A01E1CF84E0089582E0089583E051
:1040C000089581E0089580E008954091E80042FF5E
:1040D000DDCF08950E94D8200E94E020E0EEF0E0BD
:1040E000808181608083E8EDF0E080818F7780833C
:1040F00019BCA7EDB0E08C918E7F8C9380818F7E70
:1041000080831092650408950F931F93CF93DF93DC
:104110000E94D8200E94E020C8EDD0E088818F77EF
:10412000888388818068888388818F7D888319BC93
:104130001092660410926204109264041092630458
:1041400000EE10E0F80180818B7F808388818160A0
:10415000888342E060E080E00E94E31FE1EEF0E04F
:1041600080818E7F8083E2EEF0E0808181608083B9
:10417000808188608083F80180818E7F8083888140
:1041800080618883DF91CF911F910F910895E8EDB1
:10419000F0E080818F7E8083E7EDF0E080818160B8
:1041A000808384E082BF81E0809365040C94842046
:1041B000E8EDF0E080818E7F80831092E200089528
:1041C0001092DA001092E10008951F920F920FB63C
:1041D0000F9211242F933F934F935F936F937F938D
:1041E0008F939F93AF93BF93EF93FF938091E100E1
:1041F00082FF0BC08091E20082FF07C08091E10046
:104200008B7F8093E1000E945B238091DA0080FF26
:104210001FC08091D80080FF1BC08091DA008E7F84
:104220008093DA008091D90080FF0DC080E189BDC4
:1042300082E189BD09B400FEFDCF81E08093660470
:104240000E94451D05C019BC109266040E94531DB2
:104250008091E10080FF19C08091E20080FF15C0CD
:104260008091E2008E7F8093E2008091E200806185
:104270008093E2008091D80080628093D80019BCBE
:1042800085E0809366040E94581D8091E10084FFC0
:1042900030C08091E20084FF2CC080E189BD82E1C2
:1042A00089BD09B400FEFDCF8091D8008F7D809339
:1042B000D8008091E1008F7E8093E1008091E20040
:1042C0008F7E8093E2008091E20081608093E20023
:1042D00080916204882311F084E007C08091E3009C
:1042E00087FD02C081E001C083E0809366040E94E4
:1042F000601D8091E10083FF29C08091E20083FF6F
:1043000025C08091E100877F8093E10082E0809367
:104310006604109262048091E1008E7F8093E10038
:104320008091E2008E7F8093E2008091E2008061C4
:104330008093E20042E060E080E00E94E31F809111
:10434000F00088608093F0000E94561DFF91EF916D
:10435000BF91AF919F918F917F916F915F914F919D
:104360003F912F910F900FBE0F901F9018951F92A5
:104370000F920FB60F9211242F933F934F935F9399
:104380006F937F938F939F93AF93BF93CF93DF935D
:10439000EF93FF93C091E900CF708091EC00D82F8C
:1043A000D17080FDD0E81092E9008091F000877F05
:1043B0008093F00078940E94FB211092E900809194
:1043C000F00088608093F000CD2BCF70C093E9009F
:1043D000FF91EF91DF91CF91BF91AF919F918F911D
:1043E0007F916F915F914F913F912F910F900FBEF1
:1043F0000F901F9018951F93CF93DF93CDB7DEB723
:10440000AA970FB6F894DEBF0FBECDBFE7E6F4E083
:104410008091F100819324E0EF36F207C9F70E9402
:10442000791D8091E80083FF2EC1809167049091EF
:104430006804492F50E04A30510508F024C1FA01C0
:10444000EE59FF4F0C949D23803821F0823809F0FB
:104450001AC108C08091630490916404992389F083
:1044600082600FC080916B048F70873008F00BC1A1
:104470008093E9008091EB0085FB882780F91092FA
:10448000E9009091E800977F9093E8008093F10015
:104490001092F100D1C0282F2D7F09F0F4C088239D
:1044A00019F0823061F0EFC080916904813009F029
:1044B000EAC0933009F080E0809364042EC08091BC
:1044C000690481112AC080916B048F702FEF280F2F
:1044D000263008F0D8C08093E9002091EB0020FF3F
:1044E0001CC0933021F48091EB00806214C0909145
:1044F000EB0090619093EB0021E030E0A90102C055
:10450000440F551F8A95E2F74093EA001092EA00A3
:104510008091EB0088608093EB001092E90080911D
:10452000E800877F8093E8000E941820ACC08111CA
:10453000AAC0109169041F778091E3008078812BD5
:104540008093E3008091E800877F8093E8000E94D9
:1045500018208091E80080FFFCCF8091E300806804
:104560008093E300111102C082E001C083E08093D8
:10457000660489C08058823008F085C08091690443
:1045800090916A048C3D53E0950779F583E08A8326
:104590008AE289834FB7F894DE01139620E03EE06B
:1045A00051E2E32FF0E050935700E49120FF03C065
:1045B000E295EF703F5FEF708E2F90E0EA3010F0E1
:1045C000C79601C0C0968D939D932F5F243149F704
:1045D0004FBF8091E800877F8093E8006AE270E037
:1045E000CE0101960E94241F16C060916B04709149
:1045F0006C04AE014F5F5F4F0E947B1EBC01892B94
:1046000009F441C09091E800977F9093E800898178
:104610009A810E94821F8091E8008B778093E80046
:1046200032C0803881F58091E800877F8093E80070
:10463000809162048093F1008091E8008E7772CFC0
:10464000811121C08091690490916A049927029791
:10465000D4F48091E800877F8093E800809169041A
:10466000809362040E94182080916204811106C028
:104670008091E30087FD02C081E001C084E0809367
:1046800066040E946A1D8091E80083FF0AC0809141
:10469000E800877F8093E8008091EB008062809340
:1046A000EB00AA960FB6F894DEBF0FBECDBFDF9128
:1046B000CF911F9108950895CF9380916604882328
:1046C000A1F0C091E900CF709091EC00892F81702A
:1046D00090FD80E8C82B1092E9008091E80083FDEE
:1046E0000E94FB21CF70C093E900CF9108950E94F2
:1046F0006A20109266040895E8EDF0E08081806100
:1047000080838AE18A95F1F700C08091D900817099
:104710000895AA1BBB1B51E107C0AA1FBB1FA61708
:10472000B70710F0A61BB70B881F991F5A95A9F75A
:1047300080959095BC01CD010895EE0FFF1F059067
:10474000F491E02D0994FB01DC0104C08D910190EE
:10475000801921F441505040C8F7881B990B0895E7
:10476000FB01DC0102C001900D9241505040D8F78E
:104770000895F999FECF92BD81BDF89A992780B529
:104780000895A8E1B0E042E050E00C94ED23262F1C
:10479000F999FECF92BD81BDF89A019700B4021637
:1047A00039F01FBA20BD0FB6F894FA9AF99A0FBEE5
:1047B00008950396272F0E94C8230E94C723252F00
:1047C0000E94C823242F0C94C8230196272F0E94EF
:1047D000C8230C94C723DC01CB01FC01F999FECF5F
:1047E00006C0F2BDE1BDF89A319600B40D92415079
:0A47F0005040B8F70895F894FFCF89
:1047FA00C800BC0101000000010000000000000028
:10480A00050100000004060000000000000021006D
:10481A007F220003121D171D431D441D151D161D61
:10482A0001F6F7313332366697C63435E1010008AE
:06483A0010181810080020
:00000001FF
