:100000000C94A5010C94C2010C94C2010C94ED1A3D
:100010000C94C2010C94C2010C94C2010C94C20154
:100020000C94C2010C94C2010C94A7210C947A2266
:100030000C94E91C0C94C2010C94C2010C94C201F2
:100040000C94C2010C94C2010C94C2010C94C20124
:100050000C94C2010C94AA1D0C94C2010C94C20110
:100060000C94C2010C94C2010C94C2010C94C20104
:100070000C94C2010C94C2010C94C2010C94C201F4
:100080000C94C2010C94C2010C94C2010C94C201E4
:100090000C94C2010C94C2010C94C2010C94C201D4
:1000A0000C94C2010C94C2010C94C20129001E00E0
:1000B0001F002000210022002B0014001A0008005D
:1000C00015001700E10004001600070009000A00EF
:1000D000E0001D001B000600190005000000E20002
:1000E000E30001512C002F003500270026002500D9
:1000F000240023002D00130012000C0018001C0027
:10010000340033000F000E000D000B00E500380036
:1001100037003600100011000000E7002A000251ED
:100120002800300001000100010001000100010071
:100130003A003B003C003D003E003F0035001E02FF
:100140001F02200221022202010001000100010021
:100150000100010000000100010001000100010098
:100160000100010001000100010001004500440000
:1001700043004200410040003502270226022502CA
:1001800024022302310230022F022E022D0200002F
:1001900000000100010003510100010035001E00B4
:1001A0001F002000210022003A003B003C003D00DF
:1001B0003E003F0040004100420043004400450033
:1001C000E000010001000100010001000000010049
:1001D00001000351010001000100010001000100C4
:1001E0000100010001002700260025002400230053
:1001F000310030004F00520051005000E500000077
:100200002F002E002D002E02000001000100010031
:1002100001000100000000000000000000000000DC
:1002200000000000000000000000000000000000CE
:1002300000000000000000000000000000000000BE
:1002400000000000000001000100010001000000AA
:10025000000000000000000000000000000000009E
:10026000000000000000000000000000000000008E
:10027000000000000000000000000000000000007E
:1002800000000100010001000100000000AE00AF0D
:1002900000DA0281FFD9F1DB20A4A62EAF00A0C0B6
:1002A00000A1C800AED580A81FD300408D14200047
:1002B0000E034C0069006C00790035003800000026
:1002C00010036C0069006C00690075006D0073001C
:1002D00000000403090409022200010100A0FA0938
:1002E0000400000103010100092111010001224065
:1002F0000007058103080001120100020000000848
:10030000D8042DEB00010102000105010906A1013D
:10031000050719E029E715002501950875018102F7
:100320009501750881010507190029FF150026FFB1
:1003300000950675088100050819012905950575C0
:10034000019102950175039101C011241FBECFEFE9
:10035000DAE0DEBFCDBF11E0A0E0B1E0E4EBF9E40C
:1003600002C005900D92AE35B107D9F724E0AEE595
:10037000B1E001C01D92A738B207E1F70E94E01476
:100380000C94B3240C94000081E0089581E008955A
:100390000C94C60108950C94CA011F93CF93DF9368
:1003A00000D000D00F92CDB7DEB749835A836B835C
:1003B0003091610189819A8131111DC06623B9F0A4
:1003C0002223A9F00E948108182F682F89819A8121
:1003D0000E942A0869817A81812F0F900F900F90D7
:1003E0000F900F90DF91CF911F910C94250F0E94D9
:1003F0005808182FEFCF0E94810869817A81EDCFCC
:10040000FC01262F408151816281738184810C948B
:10041000CD0181E00895CF93DF93D82FC92F60E0FD
:100420000E9400026D2F7C2FDF91CF910C94CB01A5
:100430000C94B7100C94BA1008950E940E060E94F6
:100440001C022FEF84E39CE0215080409040E1F7B4
:1004500000C000000C94CE1D0F931F93CF93DF9329
:100460008C0161E00E940002EC01B8010E94C80109
:100470008823A9F1B801CE010E94E018882379F100
:10048000B801CE010E944E17882349F1B801CE0170
:100490000E944A18882319F1F8018281882361F0AB
:1004A000CB35FDE5DF0721F170F4C115ECE5DE0782
:1004B000A1F0CF3DDC45C9F0C801DF91CF911F917C
:1004C0000F910C94C401CC358DE5D807A1F0CD3542
:1004D000DD4591F70E94B60CEFCF0E941D0280E02F
:1004E000DF91CF911F910F9108950E946A0DF7CF70
:1004F0000E94BF0CE1CF0E94C20CDECF0E94CE1C36
:100500000E9498020C94DE160E949B020C94D21C4E
:1005100008950C94880281E008950C948B0208954C
:10052000CF93C82F0E9489028C2FCF910C948D02FB
:1005300080E00C9490020E94141C0C9490020E9483
:10054000141C90916001981721F0809360010C9425
:1005500090020895EF92FF920F931F93CF93DF9332
:10056000CDB7DEB72B970FB6F894DEBF0FBECDBF69
:10057000042F4F83152F588769877A878B87EA84E2
:10058000FB8461110E94040C1E8285E0FE013796F7
:10059000DE01119601900D928A95E1F7EF28A9F4FA
:1005A00049815A816B817C818D819E810E94230BC0
:1005B0002B960FB6F894DEBF0FBECDBFDF91CF9163
:1005C0001F910F91FF90EF90089510231F3F41F36B
:1005D000CE0101960E9409028111E2CFE9CFFC0110
:1005E000808191810C94C308CF93C82F882329F16F
:1005F0008CEF8C0F813AA0F46C2F809102019091C6
:1006000003010E94701C882329F08C2F0E94C40BC8
:100610000E94240C8C2F0E94BD0BCF910C94240CB3
:1006200080E28C0F883048F4C77081E001C0880FE9
:10063000CA95EAF70E94E50BF0CFCF910895882381
:1006400029F19CEF980F913A20F40E94C40B0C946E
:10065000240C90E2980F983050F4877091E001C01C
:10066000990F8A95EAF7892F0E94EB0BF0CF9BE553
:10067000980F933020F490E080E00C94321C885A5C
:10068000873120F490E080E00C94481C08951F937B
:10069000CF93DF93182FEB010E94F402209731F4DF
:1006A000812FDF91CF911F910C941F038FE99FE061
:1006B0000197F1F700C000002197F0CF70E060E0F3
:1006C000893311F460E570E00C944703882321F02E
:1006D0000E94E50B0C94240C0895882321F00E94BD
:1006E000EB0B0C94240C0895BF92CF92DF92EF9203
:1006F000FF920F931F93CF93DF9300D000D00F9200
:10070000CDB7DEB76C016D837983FC011281F58072
:10071000F2949FE0F9220E94DB0BE82E8823C1F0BF
:10072000E12E1123A9F08981807F803429F08D8109
:10073000805E883008F44BC08091570282FD47C02C
:1007400082E00E94850C0E94DB0B91E0E82EE926F6
:10075000B980B2948FE0B822F8E0BF1609F4F3C074
:10076000FB15B8F101E00B1508F047C08EE08B0DCA
:100770008F70823008F475C0EB2DE850FF0B349772
:1007800020F40E94141C0E949002EE2009F4ECC197
:100790000E94D70B80FDE8C1F60112820E94D10BA6
:1007A0000E941A07C6010E94DA050E94D10B0F9021
:1007B0000F900F900F900F90DF91CF911F910F919D
:1007C000FF90EF90DF90CF90BF900C944B07E12CFF
:1007D000BFCF29E0B21609F462C186E08B0D8F709D
:1007E000823050F60D81023F09F06AC189818F7114
:1007F000111163C10E941A07BFCF09810F702981AF
:10080000207F11F00295007F1123A1F0002361F0F9
:100810008D81805E883018F01D81111107C0802FF6
:100820000E94E50B0E94240C8D8144C0802F0E9401
:10083000F60BF8CF8D810E941F03002309F49CCF93
:100840008D81805E883018F01D81111104C0802FC9
:100850000E94EB0B03C0802F0E94FC0B0E94240C13
:100860008BCF09810F702981207F203211F00295F2
:10087000007F3D81332381F0313009F445C01123DD
:1008800009F44FC0FF2009F445C0F601858180FFBF
:10089000CBCF8F7085833EC08091570282FF14C0FA
:1008A000112359F0002329F0802F0E94E50B0E94AC
:1008B000240C80E00E94F4025FCF80E00E941F03BE
:1008C000002309F459CFC3CF112389F0F11006C0DA
:1008D0000E94070C802B0E9466034ECF81E0F81225
:1008E000F7CF0E94070C802B0E940D0C45CFF11012
:1008F00006C00E941A0C802F0E946D033DCF91E02C
:10090000F91609F439CFF5CF112331F0E5E0EF15F1
:1009100008F432CF802FDFCFF4E0FF1508F42CCF9E
:10092000EACFFF2041F30D81093349F41FEF27EE91
:1009300033E0115020403040E1F700C000008D81CD
:100940000E941F0319CF8981837009F050C01111D3
:1009500013CF2D81229526952770220F220F4D81CE
:100960004F7050E070E060E0022E04C0440F551F4D
:10097000661F771F0A94D2F70D8180E090E0DC01BA
:1009800004FF0FC08FE090E0A0E0B0E004C0880F4B
:10099000991FAA1FBB1F2A95D2F780959095A09505
:1009A000B09519811695169513701D838C019D01C4
:1009B000042B152B262B372B09831A832B833C837F
:1009C0001D8169817A818B819C81123051F01330B5
:1009D00059F0113019F00E949006CECE0E946806A0
:1009E000CBCE0E94B806C8CE0E946606C5CE1123A3
:1009F00009F448C0098100FFBFCE2D8122952695BC
:100A00002770220F220F4D814F7050E070E060E0A0
:100A1000022E04C0440F551F661F771F0A94D2F799
:100A20000D8180E090E0DC0104FF0FC08FE090E0DA
:100A3000A0E0B0E004C0880F991FAA1FBB1F2A9531
:100A4000D2F780959095A095B09519811695169539
:100A500013701D838C019D01042B152B262B372B26
:100A600009831A832B833C831D8169817A818B8161
:100A70009C81123071F0133079F0113039F00E94FE
:100A8000D9077ACE198111FF77CEB7CF0E94B1076F
:100A900073CE0E94010870CE0E94E4066DCE0981DB
:100AA0000F700983112329F0802F0E941A078D816E
:100AB00012CF8D810E946D0389810E944B075CCE0D
:100AC0000D81033F60F4003FC1F0013F89F0112325
:100AD00009F445C0F110A8CE89818F718BCE0D81AC
:100AE000033FD9F0043F99F78091570282FF1FC05E
:100AF00089818F71112309F37DCE112349F014E010
:100B00001F1508F439CE89818F710E94800734CE79
:100B100025E02F1508F430CEF6CF112329F0898176
:100B20008F710E94F50628CE0E94F00625CE112373
:100B300059F009810F710983802F0E941A0763E021
:100B400089810E946A0C18CE81E00E94850C11E018
:100B50001F1508F011CE82E00E94850C0DCEF11019
:100B6000E2CE89818F71A9CF0F900F900F900F90D7
:100B70000F90DF91CF911F910F91FF90EF90DF9039
:100B8000CF90BF9008950F931F93CF93DF93EC0105
:100B9000688179818A810E94CF088C010E9429088E
:100BA0000E946506B801CE01DF91CF911F910F9190
:100BB0000C947403CF93DF93EC01988189812B818E
:100BC0003C81232B19F089238F3F59F4DF91CF917A
:100BD0000895CE010E94C305CE01DF91CF910C9400
:100BE0000B02CE010E942C028111F3CF0E94DB0B7D
:100BF000882361F38A81882349F38091570282FD1B
:100C0000E5CF82E0DF91CF910C94850C0E94040C1B
:100C10000C94240C0E94CB0B0C9406060E94F30B40
:100C20000C940A06282F92959F70963091F060F4EC
:100C3000925F9F70923030F481E0203F81F030F479
:100C4000283E30F080E008959A5FF3CF243FD1F73B
:100C5000089581E0283EE0F3213FA1F7F9CF089500
:100C6000FC01808191810E94C3080C941206CF93ED
:100C7000DF9300D000D00F92CDB7DEB70F900F906A
:100C80000F900F900F90DF91CF910895CF93DF9346
:100C900000D000D000D0CDB7DEB726960FB6F894BE
:100CA000DEBF0FBECDBFDF91CF91089508950C94A4
:100CB00056060E94570660938E0170938F018093B1
:100CC0009001909391010C94060608950C94590696
:100CD000CF93DF9300D000D0CDB7DEB769837A839E
:100CE0008B839C8380918E0190918F01A0919001C4
:100CF000B091910129813A814B815C81282B392B5C
:100D00004A2B5B2B29833A834B835C83CA01B9014D
:100D10000F900F900F900F90DF91CF910C94590688
:100D2000CF93DF9300D000D0CDB7DEB769837A834D
:100D30008B839C8380918E0190918F01A091900173
:100D4000B091910129813A814B815C81282339231B
:100D50004A235B2329833A834B835C83CA01B9010D
:100D60000F900F900F900F90DF91CF910C94590638
:100D7000CF93DF9300D000D0CDB7DEB769837A83FD
:100D80008B839C8380918E0190918F01A091900123
:100D9000B091910129813A814B815C8128273927C3
:100DA0004A275B2729833A834B835C83CA01B901B5
:100DB0000F900F900F900F90DF91CF910C945906E8
:100DC0000C9456060C94E0060E94E20660938A0199
:100DD00070938B0180938C0190938D010C94060687
:100DE00060E070E0CB010C94E4060F931F93CF9367
:100DF000DF9300D000D0CDB7DEB741E050E060E037
:100E000070E08A019B0104C0000F111F221F331FD5
:100E10008A95D2F709831A832B833C83C901B801D1
:100E20000F900F900F900F90DF91CF911F910F9126
:100E30000C94E4060F931F93CF93DF9300D000D060
:100E4000CDB7DEB741E050E060E070E004C0440F91
:100E5000551F661F771F8A95D2F780918A0190915E
:100E60008B01A0918C01B0918D018A019B01082B0F
:100E7000192B2A2B3B2B09831A832B833C83C90113
:100E8000B8010F900F900F900F90DF91CF911F91AD
:100E90000F910C94E4060F931F93CF93DF9300D030
:100EA00000D0CDB7DEB741E050E060E070E004C0B4
:100EB000440F551F661F771F8A95D2F740955095AE
:100EC0006095709580918A0190918B01A0918C0121
:100ED000B0918D018A019B01082319232A233B230A
:100EE00009831A832B833C83C901B8010F900F90AB
:100EF0000F900F90DF91CF911F910F910C94E4060A
:100F00000F931F93CF93DF9300D000D0CDB7DEB700
:100F100041E050E060E070E004C0440F551F661FE0
:100F2000771F8A95D2F780918A0190918B01A091C9
:100F30008C01B0918D018A019B01082719272A276E
:100F40003B2709831A832B833C83C901B8010F9087
:100F50000F900F900F90DF91CF911F910F910C94F4
:100F6000E406CF93DF9300D000D0CDB7DEB769831E
:100F70007A838B839C8380918A0190918B01A091CD
:100F80008C01B0918D0129813A814B815C81282BA4
:100F9000392B4A2B5B2B29833A834B835C83CA0111
:100FA000B9010F900F900F900F90DF91CF910C949B
:100FB000E406CF93DF9300D000D0CDB7DEB76983CE
:100FC0007A838B839C8380918A0190918B01A0917D
:100FD0008C01B0918D0129813A814B815C8128235C
:100FE00039234A235B2329833A834B835C83CA01D9
:100FF000B9010F900F900F900F90DF91CF910C944B
:10100000E406CF93DF9300D000D0CDB7DEB769837D
:101010007A838B839C8380918A0190918B01A0912C
:101020008C01B0918D0129813A814B815C81282707
:1010300039274A275B2729833A834B835C83CA017C
:10104000B9010F900F900F900F90DF91CF910C94FA
:10105000E4060895E92FEE0FE90FEE0FE80F8E2F4B
:10106000877041E001C0440F8A95EAF7E695E6955E
:10107000E69585E0E89FF0011124EE59FE4F30E03F
:1010800020E070E05191DF011197CB01022E02C0E8
:10109000969587950A94E2F7817081958527842338
:1010A00085278C932F5F3F4F2530310559F70895E1
:1010B000E92FEE0FE90FEE0FE80F9E2F9770E695E0
:1010C000E695E69585E0E89FF0011124EE59FE4F84
:1010D00050E040E080E0219130E0092E02C03695DA
:1010E00027950A94E2F721703327042E01C0220FBE
:1010F0000A94EAF7822B4F5F5F4F4530510559F74D
:101100000895BF92CF92DF92EF92FF920F931F93B9
:10111000CF93DF938C01C0908A01D0908B01E09037
:101120008C01F0908D0180918E0190918F01A091A2
:101130009001B0919101C82AD92AEA2AFB2ACFE16D
:10114000D0E0BC2ED701C6010C2E04C0B695A795E1
:10115000979587950A94D2F780FD0EC0219788F75E
:10116000B12C8B2DDF91CF911F910F91FF90EF90BC
:10117000DF90CF90BF900895B8018C2F0E94390F57
:10118000019761F3EECFCF93DF93D82FC92F0E9441
:1011900081086D2F7C2FDF91CF910C94390F1F9315
:1011A000CF93DF93162FD72F90916101992339F0B8
:1011B000862F972FDF91CF911F910C94C30888231E
:1011C00091F0862F972F0E948108C82F682F812FBA
:1011D0009D2F0E942A08612F7D2F8C2FDF91CF91A8
:1011E0001F910C94390F862F972F0E945808C82FF3
:1011F000F2CF1F93CF93DF93E091920116E080919D
:1012000093018E1304C0DF91CF911F910895CE2FCB
:10121000D0E01E9FF0011124EC56FE4F4081518119
:1012200062817381848195810E9446062196EC2F0C
:10123000E770E5CF4091C4015091C5016091C601AE
:101240007091C7018091C8019091C9010C94460624
:10125000FF920F931F93CF93DF938091C901807FFB
:10126000D1F48091C6018823B1F080919201109150
:1012700093017091C4016091C501A091C701B09123
:10128000C801062F0723C0910001D091010196E00B
:10129000F92E181306C0DF91CF911F910F91FF9087
:1012A000089590E0109711F00F3F19F401968770A0
:1012B000F0CFF89E9001F99E300D1124F901EC5603
:1012C000FE4F41816413F2CF40814713EFCF42813B
:1012D0004111ECCF438154814A1B5B0B4C175D07D6
:1012E00028F78091C9018F7080618093C901F9014D
:1012F000E756FE4F80818F708061808384EC91E09F
:101300000E94DA05DF91CF911F910F91FF900C940D
:10131000F908AF92BF92CF92DF92EF92FF920F93B4
:101320001F93CF93DF93CDB7DEB72B970FB6F8940B
:10133000DEBF0FBECDBF8C0185E0F801DE01179640
:1013400001900D928A95E1F7D8011296EC901297D0
:101350001396CD90DC9084ECA82E81E0B82E2091DD
:10136000C4019091C5014091C7015091C801411538
:10137000510529F0892F82238F3F09F04DC1EE20BE
:1013800009F45DC1C8010E943006F82E882309F4D3
:1013900056C186E0F801A4ECB1E001900D928A9567
:1013A000E1F784EC91E00E94EF020E94280903C15A
:1013B0008091C901E82FE07F4617570708F0ABC0BE
:1013C000D80111963C911197E111E1C0FE2C39131F
:1013D00025C09C91921322C0E11020C08F708061C3
:1013E0008093C9010E941A0984EC91E00E94DA05F9
:1013F0008091C901F80185838F2D2B960FB6F89443
:10140000DEBF0FBECDBFDF91CF911F910F91FF9037
:10141000EF90DF90CF90BF90AF9008952F81CD28AF
:1014200029F0832F82238F3F09F0AEC080E0F82F90
:10143000F170DF2EE09192014091930156E080FD22
:101440001CC0EE20C9F28091C90181608093C9015E
:10145000F12CD2CF8E2F90E05E9FF0011124EC563C
:10146000FE4F6181361306C06081621303C0628142
:10147000E612E7CF0196E82FE770E413EBCF8F81F8
:1014800098850E94C308292F22952F70903268F00A
:10149000225F2F70223080F49F7059F0D80115968A
:1014A0009C91907F31F4D12C0AC09F7011F0882359
:1014B000D1F3805E8830B8F3C8010E94DA05FD2CB4
:1014C0009BCFC8010E943006882309F4B8C0EE20E3
:1014D00009F4B5C08091C901803270F02091C40137
:1014E0003091C5013A8329831B82DD82CC828E83B1
:1014F000CE0101960E94DA0586E0F801A4ECB1E085
:1015000001900D928A95E1F70E9428090E941A091C
:10151000FF24F39471CFE11151C04F815885698543
:101520007A858B850E94370684EC91E00E94DA056B
:1015300086E0D5011D928A95E9F70E941A0988CFA5
:1015400086E0F801A4ECB1E001900D928A95E1F7F4
:1015500053CFC8010E9430068111CECF8091C901BE
:1015600081608093C901C8010E94DA0545CF4F818F
:10157000588569857A858B850E94370686E0D50176
:101580001D928A95E9F717C081E08E2550CF391357
:1015900098CFF8019081921394CFE11092CF858378
:1015A000C8010E94DA0586E0F801A4ECB1E00190E0
:1015B0000D928A95E1F70E941A091ECFF801318138
:1015C00093137FCFF801908192137BCFE11079CFF5
:1015D0008583C8010E94DA0586E0D5011D928A95AF
:1015E000E9F70ACFD80111968C919813B2CFF80180
:1015F00080818213AECF8091C90180FDA1CF982F49
:10160000907F09F49DCF8583903F51F2982F907F72
:10161000905F8F70892BC3CFF090C601F601E41B59
:10162000F50BAF016091000170910101F110C0CE86
:101630004617570708F09BCFFE2CE110D3CFC80107
:101640000E94DA0565CF1F93CF93DF93CDB7DEB746
:101650002C970FB6F894DEBF0FBECDBF4F835887CF
:1016600069877A878B879C87CE0107960E948909B4
:10167000882369F08A859B85892B39F058854F81AD
:10168000852F84238F3F09F071C016E05FC086E08C
:10169000FE013796DE01119601900D928A95E1F7D1
:1016A0008F81988520919301409192016A857B8575
:1016B000672B59F389238F3F41F330E0C90101962D
:1016C000877099274817190671F40E940E06109228
:1016D00093011092920186E0E4ECF1E0DF011D92AB
:1016E0008A95E9F7D2CF96E0929FD001939FB00DF3
:1016F0001124AC56BE4FFE01319601900D929A9581
:10170000E1F7809393010E94F908BFCF819FC00148
:1017100011248C569E4F0E9489098823E9F0E0919C
:1017200092011E9FF0011124EC56FE4F4081518121
:1017300062817381848195810E9446068091920125
:1017400090E0019687709927809392018091920191
:10175000909193018913DACF2C960FB6F894DEBFDF
:101760000FBECDBFDF91CF911F91089569857A8516
:101770008B859C850E94460688CF682F8091020148
:10178000909103010C94AA1C682F80910201909102
:1017900003010C94AC1C80910201909103010C9404
:1017A000AE1C8091D201859585958595089580918F
:1017B000D201877008959091D201977081E009F469
:1017C00080E008958091DD0108959091DD01982BCE
:1017D0009093DD010895982F90958091DD018923E4
:1017E0008093DD0108951092DD0108959091DC0150
:1017F000982B9093DC010895982F90958091DC01AF
:1018000089238093DC0108951092DC010895809172
:10181000D301089508950C940A0C9091570292FDFB
:1018200008C09091D301981721F08093D3010C94B4
:101830000B0C08958091D301882329F01092D301D5
:1018400080E00C940B0C0895CF93DF93E09102019C
:10185000F09103018091DD018083E0910201F0911C
:10186000030180819091DC01892B80839091D301C9
:10187000992381F0E0910201F09103018081892B8D
:10188000808380910201909103010E945E1C81116E
:101890000E941A0CC0910201D091030148E050E06F
:1018A0006AEC71E0CE010E945B24892B69F088E02C
:1018B000FE01AAECB1E001900D928A95E1F7CE010C
:1018C000DF91CF910C94271CDF91CF91089508955B
:1018D0000C94670C9091570292FD10C098E0899F7C
:1018E00090011124622B6093D2010E941A0780910B
:1018F000D2018595859585950C94680C0C941A07F2
:101900001092D20180E00C94680C9091D2018095E5
:1019100089238093D201282F277091F4282F082E35
:10192000000C330B9217130659F09091570292FD59
:1019300007C08595859585950E944B070C94800C72
:1019400008959091570292FB222720F9281769F0F9
:1019500080FB92F990935702809156029091570222
:101960000E94E60C82E00C94850C08958091570249
:1019700082FB882780F991E089270C94A10C81E0F3
:101980000C94A10C80E00C94A10C90E080E00E94EB
:1019900079249C0181E0293E3E4F09F080E00895C2
:1019A00082E090E00C94712483E090E00C94712428
:1019B000CF9384E090E00E947124C82F82E290E0EF
:1019C0000E947124982F8C2FCF910895CF93682F68
:1019D000C92F84E090E00E947F246C2F82E290E087
:1019E000CF910C947F24AB01BC018FE090E00C946C
:1019F0009124AB01BC0183E190E00C94912460E060
:101A000070E0CB010C94F90C60E070E0CB010E9417
:101A1000F30C0C94FF0C69EE7EEF90E080E00E94E6
:101A20009D2460E082E090E00E947F2460E083E0FB
:101A300090E00E947F2410928E0110928F011092EC
:101A400090011092910160E084E090E00E947F2478
:101A500060E082E290E00E947F2460E085E090E018
:101A60000E947F2460E086E090E00E947F246FEF78
:101A700087E090E00E947F2440E050E0BA0188E0D7
:101A800090E00E94912460E08DE090E00E947F242D
:101A900040E050E0BA0188E190E00E94912460E0CB
:101AA00087E190E00E947F2440E050E0BA018CE1A1
:101AB00090E00E94912470E060E080E290E00E945B
:101AC0009D2440E050E0BA0188E190E00E9491241A
:101AD0000C94040D0C940B0D682F8EE090E00C9488
:101AE0007F240E94541D6093EC017093ED0180935C
:101AF000EE019093EF016093E8017093E901809308
:101B0000EA019093EB01089585B7806885BF85B79A
:101B1000806885BF0895089508950C948C0D0895EC
:101B20000C948F0D0E94840D8BE790E10E940A1C9B
:101B30000E948B0D0C948D0D0C94891208950895BC
:101B40000E949E0D0C949F0D0E947E100C948F029B
:101B50000E943F1D0E9418100E94A3120E94D411DF
:101B60000E94A40D0E94ED1480E00E944C150E947A
:101B7000AD120C94900D9F92AF92BF92CF92DF92D4
:101B8000EF92FF920F931F93CF93DF9300D000D07B
:101B90000F92CDB7DEB70E94F611D82E81110E94A8
:101BA000710D8EEDA82E81E0B82E10E000E0902E91
:101BB000802F0E94BC10F82EF501E1905F01E8161D
:101BC00009F444C08091F00181FD0E94C2108E2D65
:101BD0008F25C12CEE24E394982F9E2191F10E9431
:101BE0009C0D882399F0C9829A82FE2081E009F435
:101BF00080E08B830E94481D8160782F9D838C83B9
:101C000049815A816B81892F0E94AA02F801E25210
:101C1000FE4F80818E25808381E0D11001C080E05D
:101C20000F900F900F900F900F90DF91CF911F9119
:101C30000F91FF90EF90DF90CF90BF90AF909F906B
:101C40000895C394EE0CF6E0CF12C6CF0F5F1F4F7E
:101C50000A30110509F0ABCF8FEF89838A831B828D
:101C60000E94481D8160782F9D838C8349815A8111
:101C70006B81892F0E94AA02CFCFCF930E94BB0D08
:101C8000C82F0E9489120E94FD16C1110E94B7152B
:101C9000CF910C949F02CF93DF930E943D0FEC01F4
:101CA000811523E59207E0F5811532E5930708F0E9
:101CB000A2C0C11580E2D807E8F4CF3FD10509F0F2
:101CC00068F4C53AD10570F4C430D10538F481E028
:101CD000219709F080E0C82F20E0D22FCE01DF91BC
:101CE000CF910895CE01805E91090897B8F3D0E0B6
:101CF000C0E0F4CFC11531E5D30768F4C11580E524
:101D0000D80708F05BC0CE0190548115904178F758
:101D1000DF70D06AE3CFDC2FCC27C16FD06ADECF73
:101D2000811539E59307A0F5C11588E5D80708F0B6
:101D30007AC0C11525E5D207C8F4C11534E5D3072B
:101D400008F06CC09E012370332781E090E002C050
:101D5000880F991F2A95E2F7C695C69520E2C29F83
:101D6000E0011124C82BD92BDA68B8CFCE019555E4
:101D70008F3F910511F008F0BACF8C2F0E94D50F3C
:101D8000C82FD0E0DC2FCC27CC27DF71D062A6CFC4
:101D900081153AE5930708F44BC09056811590429F
:101DA00008F0A5CF8D2F8F710E94D50F90E0982F4E
:101DB000882788279F718C2BEC01E8CF9E0174E067
:101DC000369527957A95E1F723708C2F8695869521
:101DD000837030E2839FC0011124922BC37021E0F5
:101DE00030E002C0220F331FCA95E2F7822B932BFB
:101DF000EC01DC6873CF9C012370332781E090E015
:101E000002C0880F991F2A95E2F7C695C69520E271
:101E1000C29FE0011124C82BD92BEBCFDC2FCC279C
:101E2000C46FD06A5BCFDC2FCC27C06FD06A56CF8F
:101E30008F700E94D50F34E0D695C7953A95E1F79B
:101E4000CF709C2FEC01D06949CF972F70E026E02E
:101E5000929F600D711D1124FB019CE3899FE00D91
:101E6000F11D1124EE0FFF1FE455FF4F8591949152
:101E700008950E94250F0C944B0E803E910599F118
:101E8000C8F48133910509F476C048F4893291058C
:101E900009F46AC08A32910509F474C0089589333F
:101EA0009105D1F082389105B9F08533910509F497
:101EB00054C00895843E910599F138F4823E91050D
:101EC000F9F0833E910509F10895863E910599F157
:101ED000873E9105B9F10895209156022370A1F033
:101EE00080EE90E008952091560220FD52C030917E
:101EF000570230FF09C024FF4FC090E080E004C0CB
:101F00002091560222FDF7CF08952091560222FD1E
:101F100046C03091570230FDE3CF24FFF5CFEDCF1F
:101F20002091570221FFF0CF8091560284FDE5CF2A
:101F300087EE90E008952091560223FFE5CF24FD1F
:101F4000DCCFF6CF2091560223FD2CC030915702F2
:101F500031FFE3CF84EE90E008952091560225FFF3
:101F6000D3CF89E290E008952091560225FFCCCF8F
:101F700085E390E008952091560226FFC5CF8AE2BE
:101F800090E008952091560226FFBECF81E390E0B5
:101F9000089589E390E0089583EE90E0089582EE3D
:101FA00090E0089586EE90E008959091560292FF99
:101FB00006C0282F28712830F9F4877F846093FFAA
:101FC00006C0282F28712831F1F4877E8461209182
:101FD000570220FF06C0382F38713830D9F4877F78
:101FE000816021FF06C0282F28712831D1F4877E17
:101FF000816194FD877E0895282F24712430F9F69D
:102000008B7F8860DCCF282F2471243101F78B7EF1
:102010008861DDCF382F3171313019F78E7F8860BC
:10202000E0CF282F2171213121F78E7E8861E1CF09
:1020300010925202109253021092540210925502C2
:102040000895CF92DF92EF92FF92CF93DF9300D06B
:1020500000D0CDB7DEB76B017C010E9489128111DF
:102060000EC00E94541DC61AD70AE80AF90AC09287
:102070005202D0925302E0925402F09255020F9015
:102080000F900F900F90DF91CF91FF90EF90DF9026
:10209000CF900895CF93DF9300D000D0CDB7DEB7B7
:1020A0000E948912882341F00F900F900F900F909B
:1020B000DF91CF910C94541D0E94541D69837A8343
:1020C0008B839C838091520290915302A091540281
:1020D000B091550229813A814B815C81280F391FCB
:1020E0004A1F5B1FCA01B9010F900F900F900F900C
:1020F000DF91CF91089580E008950895CF93DF9305
:1021000000D000D0CDB7DEB70E94C50C811102C04F
:102110000E946A0D0E94D00C8093F0010E94D80C9E
:1021200090935702809356020E947D100E94D40C17
:10213000282F30E050E040E0CA01B9010E94660655
:1021400080918A0190918B01A0918C01B0918D01B9
:1021500089839A83AB83BC83BC01CD010F900F9020
:102160000F900F90DF91CF910C94E20608950C949C
:10217000B61008950C94B910E82FF0E0ED59FD4F1A
:1021800080810895089580EA8A95F1F7089500C046
:1021900008950C94C31008950C94CB10DF92EF9225
:1021A000FF920F931F93CF93DF9300D000D00F9235
:1021B000CDB7DEB70E948912182F60916D02882377
:1021C00009F44EC01A821982FE01339683E0DF01C2
:1021D0001D928A95E9F7862F90E032977F01BF0123
:1021E0008D599D4F0E94BB12DE2C0F2D882301F1CB
:1021F0008091580290E045E050E0B7018D599D4F25
:102200000E945B2421E02093F101892BE1F410E08E
:102210000E941A02812F0F900F900F900F900F9035
:10222000DF91CF911F910F91FF90EF90DF90089574
:102230008091F101882359F385E0D7011D928A9599
:10224000E9F71092F101A0915802B0E0AD59BD4FED
:1022500085E0ED2DF02F01900D928A95E1F7D8CF12
:1022600070E06D597D4F8091580290E08D599D4FDF
:102270000E9449130E94CC10CDCFF894E82FE2952C
:10228000EF70F0E041A18F7021E030E0B90102C0B1
:10229000660F771F8A95E2F7CB01962F90959423CE
:1022A00091A392A1892B82A378940895CF93DF9371
:1022B000C7E3D1E089918F3F11F00E943D1181E089
:1022C000CC33D807B9F7C1E3D1E089918F3F11F042
:1022D0000E943D1181E0C733D807B9F7DF91CF9154
:1022E0000895CF92DF92EF92FF920F931F93CF93B7
:1022F000DF93EC01D62E062F10E0C801895C9E4FBB
:102300007C01FC0180818F3F09F445C0F894E82FDF
:10231000E295EF70F0E091A18F7021E030E001C014
:10232000220F8A95EAF7892F822B81A382A120951B
:10233000282322A378940E94C710E1E3F1E047E349
:1023400051E091E0C12C81918F3F79F0A82FA295A7
:10235000AF70A05EB0E02C9130E08F7002C0359578
:1023600027958A95E2F7892F20FD80E0C82A990FEA
:102370004E175F0741F7F70180818F3F11F00E94F0
:102380003D1161E0C11001C060E08D2D0E94C910B7
:10239000C00FD11FC882DF91CF911F910F91FF9085
:1023A000EF90DF90CF900895809104018091040117
:1023B00095E0811190E090936D0285E0891B8093F8
:1023C00058020E9456118AE0E3E6F2E0DF01982FFE
:1023D0001D929A95E9F7E9E5F2E0DF011D928A95F1
:1023E000E9F785E00E9452120C941802DF92EF92F6
:1023F000FF920F931F93CF93DF93CDB7DEB72A974A
:102400000FB6F894DEBF0FBECDBF1A821982FE014F
:10241000339688E0DF011D928A95E9F7F12C8E0151
:102420000F5F1F4F6F2DC8010E947111F394D02EC2
:10243000E12EB5E0FB12F6CF4AE050E0B80189E5A5
:1024400092E00E945B248C0121E0892B09F420E0BA
:102450000115110549F08AE0ED2DFE2DA9E5B2E048
:1024600001900D928A95E1F760916D0270E06D59CF
:102470007D4F45E089E592E00E94531281E090E0B3
:10248000012B11F40E94CE102A960FB6F894DEBFED
:102490000FBECDBFDF91CF911F910F91FF90EF90B5
:1024A000DF9008950895FF920F931F93CF93DF93CA
:1024B000F82E092F162FD72FC42F222349F081E0A1
:1024C0008093F4010E94481D9093F3018093F201E0
:1024D0008091F4018823A1F08091F2019091F301A1
:1024E0000E94741D059760F0EF2DF02FA12FBD2FD6
:1024F000CF018C0F911DE817F90741F41092F401F8
:10250000DF91CF911F910F91FF90089521912D930D
:10251000F2CF8091F701811107C00E9434248823F3
:1025200051F081E08093F70181E09091F7019130C3
:1025300009F080E0089582E08093F7010E942F2443
:10254000F3CF0C9489120E94A112809304010E947F
:10255000891281110C94F31208950E94891281113D
:1025600002C00C94F512089581E09091F8019A3020
:1025700008F080E008950F931F93CF93DF93EC0151
:10258000162F072F8091F8018A30C0F4612F702F29
:10259000CE010E944713C82F811122C08091F801FB
:1025A0008F3FB9F40E94481D9093F6018093F50186
:1025B0008C2FDF91CF911F910F9108958091F5019C
:1025C0009091F6010E94741D843F9140F8F6C0E09E
:1025D000EFCF8F5F8093F8018A3020F7C1E0E8CF1A
:1025E0001092F801E5CF0C94A61A0C94A91ACF9278
:1025F000DF92EF92FF920F931F93CF93DF93FA0135
:1026000069017801C82F880FDD0B3097B1F0DE012A
:1026100093E0AA0FBB1F9A95E1F7AB5FBE4F1196EF
:102620008D919C91129787509E4F4C9150E0E417EA
:10263000F50708F4AF010E946824CE010E94941BA4
:10264000182F8823D1F0E114F104B9F083E0CC0F06
:10265000DD1F8A95E1F7FE01EB5FFE4F438150E0FD
:10266000E416F50608F4A701CB5FDE4F6C817D818F
:1026700067507E4FC6010E946824812FDF91CF9161
:102680001F910F91FF90EF90DF90CF9008950C94E1
:1026900078140C949A140F931F93CF93DF93CDB7B4
:1026A000DEB728970FB6F894DEBF0FBECDBF80917E
:1026B000100290911102A0911202B0911302BC017C
:1026C000CD010E94831D11E06436710581059105DD
:1026D00020F10E944A10DC01CB010296A11DB11D20
:1026E00089839A83AB83BC8310E000E030E020E074
:1026F00044E050E0BE016F5F7F4F82E00E94F7121E
:10270000182F882351F00E94541D6093100270937B
:1027100011028093120290931302812F28960FB614
:10272000F894DEBF0FBECDBFDF91CF911F910F9107
:102730000895AF92BF92CF92DF92EF92FF920F93E4
:102740001F93CF93DF93F82EE92ED62EC72E890143
:102750000E94B412AA24A394B12C882319F08AE011
:10276000A82EB12CC1E0D0E0F8946D2D7C2D8F2DDA
:102770009E2DF80109957894811104C02196AC161C
:10278000BD065CF4DF91CF911F910F91FF90EF9008
:10279000DF90CF90BF90AF900895CC9F9001CD9FD8
:1027A000300D300D112490E080E045E34A95F1F7BB
:1027B0000000019628173907C1F7D6CFAF92BF9214
:1027C000CF92DF92EF92FF920F931F93CF93DF93FD
:1027D000CDB7DEB72A970FB6F894DEBF0FBECDBFD8
:1027E0007B01A0903C01B0903D0101E010E09E0112
:1027F0002A5F3F4F50E040E070E060E080E00E94E0
:10280000F712182F882309F44EC065018FEFC81AFC
:10281000D80A80910C0290910D02A0910E02B09105
:102820000F02BC01CD010E94831D6F8378878987C9
:102830009A87643671058105910568F105E010E01D
:102840009E012F5F3F4F50E040E070E060E081E08C
:102850000E94F712082F65E070E0C6010E94EE1496
:1028600011E09E81981310E0102341F10E94541D45
:1028700060930C0270930D0280930E0290930F02EE
:1028800085E0FE013196A7E0B2E001900D928A95B5
:10289000E1F711E013C065E070E0C6010E94EE149C
:1028A0009E818913CBCF85E0F5013196DE0111962B
:1028B00001900D928A95E1F71111E2CF85E0E7E0F2
:1028C000F2E0D70101900D928A95E1F7812F2A96C7
:1028D0000FB6F894DEBF0FBECDBFDF91CF911F9131
:1028E0000F91FF90EF90DF90CF90BF90AF90089541
:1028F0000F931F93CF93DF93D82FC92F8B012EED0A
:1029000033E14EE351E00E949913882369F02BE4F0
:1029100033E14BE451E0B8018D2F9C2FDF91CF9133
:102920001F910F910C94991380E0DF91CF911F912B
:102930000F9108950F931F93CF93DF93FB01F894AA
:10294000C0913C01D0913D01CE01019625E0DC0112
:1029500001900D922A95E1F765E070E00E94EE1477
:1029600088837894F8946E817F8188859985009119
:1029700003021091040220910502309106026017B3
:1029800071078207930751F060930302709304026A
:1029900080930502909306020E9421107894DF91A3
:1029A000CF911F910F9108950E941A1F0E94A80DA8
:1029B0000C94261F0E942A1F0E943D0E0C94441F57
:1029C0000E94E81C0E94011F0E94920D0E94D414D4
:1029D0000E94DA140E94A00DFBCF0895FC01680F3D
:1029E000791F8FEF91E36E177F0709F40895219106
:1029F000822728E030E087FF06C0880F8927215012
:102A00003109C9F7F0CF880FFACFCF92DF92EF925A
:102A1000FF920F931F93CF93DF936C017B0164E6CA
:102A200070E088E70E943B19EC018601EC0CFD1C6C
:102A300097FD0EC0F801849164E670E00E94B4191D
:102A4000EC01892B29F40F5F1F4FE016F10691F777
:102A50000E94411ACE01DF91CF911F910F91FF90FB
:102A6000EF90DF90CF90089508950C943415EEE622
:102A7000F2E080E092E0DF019C011D9221503040A5
:102A8000E1F7F0937504E09374048FEF9FEF909358
:102A90003A02809339020895CF93DF9300D000D09B
:102AA000CDB7DEB70E9434150E94351590E280FF45
:102AB00090E880933502909334020E9435196DE0BE
:102AC00070E083EA92E00E940515892B41F080E0D6
:102AD0000F900F900F900F90DF91CF9108958091FC
:102AE000350263E070E081FD28C080EA92E00E9438
:102AF0000515892B61F76DE070E080E992E00E9496
:102B00000515892B21F70E94541DDC01CB01805A49
:102B10009541AF4FBF4F8093700490937104A09381
:102B20007204B09373040E94371581E080933802D9
:102B30008093370210923602CBCF8DE992E0D7CF47
:102B40002091340236E0839FC0011124629F800DE2
:102B5000911D1124811522E0920714F090E080E08D
:102B600082599D4F90937504809374040895CF9378
:102B7000DF9300D000D0CDB7DEB78091380281114D
:102B800009C0809137020F900F900F900F90DF9146
:102B9000CF9108950E94541DDC01CB01805A9541CC
:102BA000AF4FBF4F8093700490937104A093720451
:102BB000B0937304809137028111E3CF62E070E03B
:102BC0008EE892E00E940515892BD9F681E080936A
:102BD0003702D7CF2F923F925F926F927F928F9260
:102BE0009F92AF92BF92CF92DF92EF92FF920F939C
:102BF0001F93CF93DF9380913802882369F020914F
:102C0000390230913A022115310531F080913602B6
:102C100061E070E0882399F0DF91CF911F910F91CF
:102C2000FF90EF90DF90CF90BF90AF909F908F90EC
:102C30007F906F905F903F902F9008958F5F082F47
:102C400010E01B01082E02C0220C331C0A94E2F78C
:102C5000A90142215321452B89F320913502922F5E
:102C6000917020FD45C0980136952795369527959A
:102C70008295880F80763FE1380F80931F01209363
:102C80002201309320019093230124E630E047E0B5
:102C900050E06DE171E088E70E94E319892B09F0AB
:102CA000BBCFA80125E0440F551F2A95E1F780917D
:102CB000350280FD25C042595D4F04E610E020E258
:102CC00030E060E488E70E94101A892B09F0A4CF55
:102CD0000E94B715E101C095D0958091390290917D
:102CE0003A02C823D923D0933A02C093390294CF31
:102CF000880F880F880F37E0380F20E093E0BDCFB2
:102D0000E4E1F2E080E2DF011D928A95E9F7AAE5AD
:102D1000B1E006E511E08EE5C82E81E0D82E97E0FF
:102D2000592E772473949D91E80189918E01BA01FF
:102D3000680F711D62597D4FE92FF0E0EC5EFD4F89
:102D400090E080E0652C681A872C082E01C0880C62
:102D50000A94EAF77B01A12CE701B9907E01B82023
:102D6000262D2A192770922E022E000C330BDB2DF4
:102D700001C0DD0F9A94EAF79D2E31952195310916
:102D80002770332701C0B6942A95EAF79B28208143
:102D9000922A9082A39428E0A212DECF0196319667
:102DA0008830910579F6CA16DB0609F0BCCF04E637
:102DB00010E020E230E044E152E083CF809137021E
:102DC00090913802911103C091E0892708958823DA
:102DD00069F062E070E08CE892E00E940515892BB2
:102DE00019F08091370208951092370280913702CE
:102DF000EBCF81E008950C94F916CF93DF9300D0C8
:102E000000D0CDB7DEB780913802882309F43FC0E7
:102E100080916E0490916F040E94741DC29760F0BF
:102E20000E94481D90936F0480936E0460E080E0E0
:102E30000E94A0150E94FB160E94EA15809137029D
:102E4000882329F10E94541D69837A838B839C8394
:102E50008091700490917104A0917204B0917304F8
:102E600029813A814B815C81281B390B4A0B5B0B12
:102E7000DA01C9018F3F9F4FAF4FBF4740F40F901A
:102E80000F900F900F90DF91CF910C94DE160F9062
:102E90000F900F900F90DF91CF910895CF93DF9314
:102EA000EC01FB018281882309F4F2C0C236FDE502
:102EB000DF0749F048F5C631ECE5DE07E0F4C23043
:102EC000FCE5DF07F0F00E94D80C90935702809346
:102ED0005602C631ECE5DE0748F5C230FCE5DF07F7
:102EE000C0F480915602909157020E94E60C0E9415
:102EF0000E0680E006C09E012B5F3C45293031055F
:102F000010F3DF91CF910895C63A9DE5D907C9F72F
:102F1000DACFFE01E350FC45809156028160E33137
:102F2000F10528F5EB54FB4D0C945524C4308DE588
:102F3000D80770F4CB3F9CE5D90798F2FE01EC5F0F
:102F4000FC45E830F10510F5E853FB4D0C94552491
:102F5000C236EDE5DE0709F494C090915602892F40
:102F60008E7F90FF8160C63ADD4509F0BACF80932D
:102F70005602B7CF809156028260F9CF80915602F7
:102F80008460F5CF809156028860F1CF809157021E
:102F9000816080935702A5CF809157028260F9CF5C
:102FA000809156028061E3CF809156028062DFCF2C
:102FB000809156028064DBCF0E940E0680915602FB
:102FC0008068D5CF809156028C60D1CF8091570216
:102FD0008360DFCF809156028E7FC9CF80915602E9
:102FE0008D7FC5CF809156028B7FC1CF80915602D5
:102FF000877FBDCF809157028E7FCBCF80915702C4
:103000008D7FC7CF809156028F7EB1CF80915602BF
:103010008F7DADCF809156028F7BA9CF0E940E0687
:10302000809156028F77A3CF80915602837F9FCFE6
:10303000809157028C7FADCF8091560282FB9927F9
:1030400090F921E0922790FB82F990FB83F98FCFD2
:1030500080915702982F909591708E7F892B90FBCD
:1030600081F997CF0E940E0690915602892F97FB07
:1030700087F980587CCF81E00E946C0D32CF80E0D0
:10308000FBCF90915602892F8F7E94FF80616FCF86
:1030900081E037CFCF93DF93EB0186319C4511F56B
:1030A0000E94E20B9A81992399F08A7A91E009F4BF
:1030B00090E090933B02811109C089E20E94BD0B10
:1030C0000E94240C80E0DF91CF91089585E3F6CF34
:1030D00080913B02811104C089E20E94C40BF0CFB1
:1030E00085E3FBCF81E0EFCF0F931F93CF93DF9367
:1030F000C42FD22FFC0182818823C9F040933E0265
:103100000E94481D90933D0280933C0280E28C0F08
:10311000883008F050C0C77081E001C0880FCA95A0
:10312000EAF7DF91CF911F910F910C9466031091F4
:103130003E02141335C080913C0290913D020E94E2
:10314000741D883C910560F5C0E2CD0F1D17B9F0E4
:1031500080E2810F883040F4177081E001C0880F51
:103160001A95EAF70E946D03C83048F481E09D2F5C
:10317000977001C0880F9A95EAF70E946603802F26
:103180000E945E03C830B8F4D77081E001C0880F98
:10319000DA95EAF7DF91CF911F910F910C946D03AF
:1031A00080E28C0F883038F4C77081E001C0880F4E
:1031B000CA95EAF7EFCFDF91CF911F910F91089554
:1031C0000F939C01CB01243F4CE53407A1F190F40F
:1031D000293DFCE53F0749F12A3D4CE53407E9F17B
:1031E000283D3C45C1F0FC0182818823E1F1109229
:1031F0003E0219C0263FFCE53F0719F1273F4CE589
:10320000340729F1253F3C4571F707E225EE44EEEE
:1032100065EF7CE505C006E221EE41EE68ED7CE558
:103220000E94741880E00F91089507E225EE45EEA4
:1032300069ED7CE5F5CF06E221EE40EE64EF7CE53A
:10324000EFCF06E221EE42EE66EF7CE5E9CF07E242
:1032500025EE46EE67EF7CE5E3CF08E221E045EEA0
:103260006AED7CE5DDCF81E0DECF1092B9008CE025
:103270008093B80008959F92AF92BF92CF92DF9251
:10328000EF92FF920F931F93CF93DF93B82EEB0132
:103290000E94481D6C01EE24E394F12CC431D10549
:1032A00060F025E0E22EF12CCF3FDC0731F0CE01BB
:1032B00064E170E00E9441247B0184EAA82E94E836
:1032C000992E1092BC00A092BC000E94481D8C0157
:1032D0008091BC0087FF0CC08091B900887F883046
:1032E00031F18091B900887F803109F10FEF08C07A
:1032F0000E94481D801B910B8E159F0548F30EEF11
:103300001FEFCF3FDC07E9F2C6010E94741D8C1746
:103310009D07B8F2C801DF91CF911F910F91FF90E7
:10332000EF90DF90CF90BF90AF909F900895B092B4
:10333000BB009092BC000E94481D8C018091BC0093
:1033400087FF0AC02091B900287F283111F020346E
:1033500069F600E010E0DECF0E94481D801B910B53
:103360008E159F0558F3CBCF0F931F93CF93DF9309
:10337000EB018093BB0084E88093BC000E94481D51
:103380008C018091BC0087FF11C02091B900287F7B
:1033900081E090E0283211F490E080E091958195F1
:1033A0009109DF91CF911F910F910895CF3FDC07D5
:1033B00041F30E94481D801B910B8C179D0708F359
:1033C0008EEF9FEFEECFCF92DF92EF92FF920F93AF
:1033D0001F93CF93DF936B018A01F22EE32E622FAE
:1033E000732F0E943B19AC01E6010C0D1D1DC01787
:1033F000D10711F057FF0DC084E98093BC00CA01CA
:10340000DF91CF911F910F91FF90EF90DF90CF90C0
:1034100008956F2D7E2D89910E94B419AC01E7CFDC
:10342000CF92DF92EF92FF920F931F93CF93DF9390
:10343000C62F6A017901B8010E943B199C0197FDD2
:103440000DC0B8018C2F0E94B4199C01E601EC0C50
:10345000FD1CCE15DF0511F037FF0DC084E9809308
:10346000BC00C901DF91CF911F910F91FF90EF90A8
:10347000DF90CF900895B80189910E94B4199C0102
:10348000E8CF84E98093BC0008958EE14A9B02C096
:103490008150E1F74A9BFECF08955A9880E28A95C1
:1034A000F1F75A9A0895FC013BE03A95F1F798E05C
:1034B00020E080E031E040E14A95F1F7880F4A9B37
:1034C00002C08160232742E04A95F1F7000040E105
:1034D0004A95F1F7915079F790E19A95F1F799B102
:1034E00032E03A95F1F7000040E14A95F1F792FB9E
:1034F000992790F992272081920F90830895EF9257
:10350000FF920F931F93CF93DF930F92CDB7DEB748
:1035100019828C017C01E60EF11C0E151F0561F469
:1035200081E09981911180E00F90DF91CF911F91FF
:103530000F91FF90EF9008950E94451ACE010196D9
:103540000E94531AF80181938F01E7CF529A5A9A39
:10355000089552985A9AEA9AE9E6F0E080818F7CC1
:10356000808308956150770B91E001C0990F6A95AF
:10357000EAF720E031E0911108C0222391F05A9A35
:1035800080E28A95F1F75A980895492F482339F037
:103590005A9A232740E24A95F1F79695ECCF5A982C
:1035A000F9CF5A98EDCFFF920F931F93CF93DF93EC
:1035B000EC018C01060F111DC017D10731F4DF910A
:1035C000CF911F910F91FF900895F9900E944D1A8D
:1035D00068E08F2D0E94B21AEFCF1F920F920FB6A4
:1035E0000F9211240F931F932F933F934F935F9349
:1035F0006F937F938F939F93AF93BF93EF93FF93BB
:10360000CF93DF930F92CDB7DEB719820E94451A90
:10361000CE0101960E94531A282F082F0695069571
:103620000695982F92959570802F8570980F892F09
:10363000837096959695890F822787709981892B3B
:1036400009F05CC0043008F059C080E18A95F1F7B8
:103650005A9A529A82E08A95F1F700C05A9888E007
:10366000089F80011124D801AB5FBE4F1696ED91E3
:10367000FC9117973097A9F060913C0170913D0142
:1036800014962D913C911597260F371F11968D9109
:103690009C911297680F791F13964C9113978C91F8
:1036A0000995F801EB5FFE4F6381662351F020918D
:1036B0003C0130913D0184819581820F931F0E94CE
:1036C000D31A0E944D1A80E18A95F1F75A985298C0
:1036D0005A9A80E18A95F1F7F801EB5FFE4F60811D
:1036E000662351F020913C0130913D01818192810E
:1036F000820F931F0E947F1A0E94451A0F90DF913C
:10370000CF91FF91EF91BF91AF919F918F917F9159
:103710006F915F914F913F912F911F910F910F905A
:103720000FBE0F901F9018950F931F93CF93DF93A9
:10373000EC0104970CF04CC0F894529A5A9885E02A
:103740008A95F1F700008C2F869585709C2F9570D7
:10375000890F982F93708695869523E0CC0FDD1FF7
:103760002A95E1F7890F8E01082B0E944D1A00C09F
:1037700068E0802F0E94B21A80E18A95F1F7529892
:103780005A9A4A9B1EC087E090E04A991CC0FE01ED
:10379000EB5FFE4F63816623F9F020913C0130918D
:1037A0003D0184819581820F931F0E947F1A8111B0
:1037B00013C0529A5A9A7894DF91CF911F910F912A
:1037C000089500C0DECF019729F4529A5A9A78944E
:1037D00080E0F2CF00C0D9CF0E94451A80E28A95DE
:1037E000F1F75A98529A80E18A95F1F7CB5FDE4F54
:1037F0006881662351F020913C0130913D0189811F
:103800009A81820F931F0E94D31A0E944D1A7894B6
:1038100081E0D2CF90935F0180935E0108959093F1
:1038200045028093440208950E948912811103C0C9
:1038300080913F020895E0914402F0914502309753
:1038400021F00190F081E02D099480E00895E0914D
:103850004402F0914502309721F00280F381E02D7F
:1038600009940895209142023091430228173907A4
:1038700071F09093430280934202E0914402F091F0
:103880004502309721F00680F781E02D09940895D4
:1038900020914002309141022817390771F090932E
:1038A000410280934002E0914402F091450230973A
:1038B00021F00084F185E02D09940895AC019C016C
:1038C0002E5F3F4F485F5F4F80E02417350709F4B4
:1038D0000895F90191919F019923B9F38F5FF5CF75
:1038E0009C01662351F0FC013296285F3F4F819185
:1038F000861729F0E217F307D1F780E0089581E0F9
:1039000008959C01FC0132968FEF90E0419146179B
:1039100051F08F3F19F4411101C0892F9F5F9630FC
:10392000A9F78F3F09F40895280F311D87FD3A95B7
:10393000F901628308959C01FC013296285F3F4F94
:103940008191861303C0DF0111971C92E217F307E0
:10395000B9F708950C94811C0C949B1CFC013296C1
:1039600086E0DF011D928A95E9F7089508950C9489
:10397000B61C8F5F809346020C94B71C83E0809343
:1039800046020C94B71C0C94B91C81E0809346024B
:103990000C94B71C0C94C51C089508950C94CD1C70
:1039A000089508950C94CC1CCF930E94D01C0E94C3
:1039B000F6110E94D11CC0E08C2F0E94BC10811116
:1039C00005C0CF5FCA30C1F7CF91089581E0FCCF29
:1039D00008951F921FB61F9211248F939F93AF9348
:1039E000BF9380914702811113C08091760490911A
:1039F0007704A0917804B09179044196A11DB11D7E
:103A00008093760490937704A0937804B09379041C
:103A1000BF91AF919F918F911F901FBE1F901895DE
:103A200080917E04843031F10E947E021092470220
:103A300088E190E020E40FB6F894A89580936000A8
:103A40000FBE2093600083B7817F846083BF83B7FC
:103A5000816083BF7894889583B78E7F83BF0FB6CC
:103A6000F894A8958091600088618093600010921E
:103A700060000FBE08950E940E060C94840282E03E
:103A800084BD93E095BD9AEF97BD80936E00089535
:103A90002FB7F8948091760490917704A0917804E0
:103AA000B09179042FBF0895CF93DF9300D000D059
:103AB000CDB7DEB78FB7F8942091760430917704B4
:103AC000409178045091790429833A834B835C8335
:103AD0008FBF69817A818B819C810F900F900F90AD
:103AE0000F90DF91CF9108959C014FB7F89480918A
:103AF000760490917704A0917804B09179044FBF37
:103B0000821B930B08950F931F93CF93DF9300D0E5
:103B100000D0CDB7DEB7462F572FBC012FB7F89492
:103B20008091760490917704A0917804B091790403
:103B30002FBF8C019D01041B150B260B370BC901F0
:103B4000B8010F900F900F900F90DF91CF911F91C0
:103B50000F91089578941F921FB61F9211248F938E
:103B60009F93AF93BF938091760490917704A09137
:103B70007804B09179040196A11DB11D809376045B
:103B800090937704A0937804B0937904BF91AF9198
:103B90009F918F911F901FBE1F90189587E797E701
:103BA000909301088093000888E19AE00FB6F8949A
:103BB000A895809360000FBE90936000FFCF809126
:103BC0005002089508950895CF93DF93D82FC92FF9
:103BD00081E08093E9008FEF9091E800815095FD9E
:103BE00006C095ED9A95F1F700008111F5CF80910F
:103BF000E80085FF16C050E040E068E070E08D2FDF
:103C00009C2F0E94A41F8091E8008E778093E8008B
:103C100088E0ED2FFC2FA8E4B2E001900D928A9588
:103C2000E1F7DF91CF9108950895089580917D0483
:103C3000811109C00E942C210E9489218091E200FB
:103C400084608093E200089510927D0408950C949E
:103C5000C51C60917A0481E0611101C080E00C9480
:103C6000BE1C90917E0481E0943009F080E0609168
:103C70007A040C94C31C42E061EC81E00E94A8200D
:103C800090917E0481E0943009F080E060917A04A4
:103C90000C94B91C80918004893089F148F48230F9
:103CA00009F49EC0833009F459C0813041F0089571
:103CB0008A3009F485C08B3009F46BC00895809177
:103CC0007F04813A09F049C08091E800877F8093A2
:103CD000E8008091830490918404892B61F468E06A
:103CE00088E492E070E00E94F31F8091E8008B77F7
:103CF0008093E800089560E090E080E0F3CF809149
:103D00007F04813251F58091830490918404892B42
:103D100021F58091E800877F8093E8008091E8009A
:103D200082FF17C09091F3008091F200029731F466
:103D30008091F100813011F0863021F48091F10002
:103D4000809350028091E8008B778093E8000C9478
:103D5000DC2080917E048111E1CF089580917F0461
:103D6000813AD9F78091830490918404892BA9F733
:103D70008091E800877F8093E8008091E80080FFD1
:103D8000FCCF809130018093F1008091E8008E7724
:103D9000DCCF80917F04813201F780918304909180
:103DA0008404892BD1F68091E800877F8093E80016
:103DB0000E94DC2080918104809330010C940E06D7
:103DC00080917F04813249F68091E800877F80935B
:103DD000E8000E94DC2080918204809351020895C3
:103DE00080917F04813A09F0B8CF8091E800877F05
:103DF0008093E8008091E80080FFFCCF8091510221
:103E0000C2CF84B7877F84BF0FB6F894A8958091FE
:103E10006000886180936000109260000FBE80E8AF
:103E200090E00FB6F89480936100909361000FBE0C
:103E30000C94CA1C0E942C210E948921E2EEF0E021
:103E400080818460808378940C94152484E291E0CE
:103E50000C940F1C80917E048530A9F480917E041F
:103E6000853011F00C943B1D0E94101D80917C0444
:103E70008823A1F30E94D41C882381F30E948E1F03
:103E80000E940E06EBCF089508950C94471F9C01E5
:103E9000FB01DA01832F992783309105B9F060F493
:103EA00081309105B1F1029761F482E290E026ED54
:103EB00032E02D933C93089581329105E1F0829791
:103EC00009F190E080E030E020E0F3CFC9019927CC
:103ED000213059F08230910559F0E2EDF2E0892B62
:103EE00081F7849190E09F01E4CFE0ECF2E0F9CF1C
:103EF000E0EBF2E0F6CF89E090E028EE32E0EF2B45
:103F000001F7D7CF80E490E02AE033E0EF2BC9F649
:103F1000D0CF82E190E028EF32E0CBCF80E189BDC5
:103F200082E189BD09B400FEFDCF8091D8008F7D6C
:103F30008093D8008091E00082608093E0008091BF
:103F4000E00081FDFCCF0895AF92BF92CF92DF9247
:103F5000FF920F931F93CF93DF936C01EB018A01C4
:103F60000E94FB20F82E811123C00115110539F0A4
:103F7000F80180819181C81BD90BC80ED91EB12CC4
:103F8000A12C2097A9F08091E80085FD22C08091A6
:103F9000E8008E778093E80001151105A1F0F80183
:103FA000808191818A0D9B1D9183808385E0F82E0D
:103FB0008F2DDF91CF911F910F91FF90DF90CF90C8
:103FC000BF90AF9008950E94FB208823D1F2F82E75
:103FD000EFCFF60181916F018093F1002197FFEF00
:103FE000AF1ABF0ACECFFC01CB01209185043091DE
:103FF00086042617370790F0009729F42091E800EF
:104000002E772093E80040E0009751F4411108C05A
:104010008091E80082FF31C080E00895C901F3CFAC
:1040200020917E042223A9F12530A9F12091E800F6
:1040300023FD2DC02091E80022FDEACF2091E80069
:1040400020FFE2CF3091F3002091F200009719F0A9
:104050002830310558F041E02830310509F040E0C2
:104060002091E8002E772093E800CECF4191409335
:10407000F10001972F5F3F4FE9CF80917E048823A5
:1040800041F0853041F08091E80083FFC1CF81E0AD
:10409000089582E0089583E00895FC01CB0120910A
:1040A0008504309186042617370790F0009729F48D
:1040B0002091E8002E772093E80040E0009751F42B
:1040C000411108C08091E80082FF32C080E008956D
:1040D000C901F3CF20917E042223B1F12530B1F143
:1040E0002091E80023FD2EC02091E80022FDEACFB8
:1040F0002091E80020FFE2CF3091F3002091F20000
:10410000009719F02830310558F041E0283031058A
:1041100009F040E02091E8002E772093E800CECF10
:1041200044914093F100319601972F5F3F4FE8CFC4
:1041300080917E04882341F0853041F08091E80031
:1041400083FFC0CF81E0089582E0089583E0089561
:10415000982F973028F08F708093E90081E00895C0
:104160009093E900242F762F50E0981731F070914A
:10417000EC002091ED005091F00021FD02C09F5F06
:10418000E8CF3091EB003E7F3093EB003091ED00B3
:104190003D7F3093ED003091EB0031603093EB00C8
:1041A0007093EC002093ED005093F0002091EE000E
:1041B00027FDE5CF80E0089580917F0487FF13C03D
:1041C0008091E80082FF06C08091E8008B778093A1
:1041D000E80004C080917E048111F2CF089580919F
:1041E0007E048823D9F38091E80080FFF8CF809186
:1041F000E8008E77ECCF2091E4003091E50095E661
:10420000A9012091EC00822F817020FF06C08091CF
:10421000E80080FF06C080E008952091E80022FDBC
:104220001AC080917E04882389F0853089F08091BE
:10423000EB0085FD0FC02091E4003091E5004217AE
:104240005307F9F29150E1F684E0089582E0089571
:1042500083E0089581E008950E949A210E94A2219E
:10426000E0EEF0E0808181608083E8EDF0E0808125
:104270008F77808319BCA7EDB0E08C918E7F8C93F3
:1042800080818F7E808310927D0408950F931F9309
:10429000CF93DF930E949A210E94A221C8EDD0E023
:1042A00088818F77888388818068888388818F7DE3
:1042B000888319BC10927E0410927A0410927C04B8
:1042C00010927B0400EE10E0F80180818B7F8083E8
:1042D00088818160888342E060E080E00E94A820BD
:1042E000E1EEF0E080818E7F8083E2EEF0E080817D
:1042F00081608083808188608083F80180818E7FE7
:104300008083888180618883DF91CF911F910F9195
:104310000895E8EDF0E080818F7E8083E7EDF0E0A6
:1043200080818160808384E082BF81E080937D040E
:104330000C944621E8EDF0E080818E7F808310921E
:10434000E20008951092DA001092E10008951F92A1
:104350000F920FB60F9211242F933F934F935F93B9
:104360006F937F938F939F93AF93BF93EF93FF933D
:104370008091E10082FF0BC08091E20082FF07C0C4
:104380008091E1008B7F8093E1000E941424809152
:10439000DA0080FF19C08091D80080FF15C080919D
:1043A000DA008E7F8093DA008091D90080FF94C07C
:1043B00080E189BD82E189BD09B400FEFDCF81E0C5
:1043C00080937E040E94161E8091E10080FF19C038
:1043D0008091E20080FF15C08091E2008E7F809383
:1043E000E2008091E20080618093E2008091D80039
:1043F00080628093D80019BC85E080937E040E947F
:10440000291E8091E10084FF29C08091E20084FF91
:1044100025C080E189BD82E189BD09B400FEFDCFE0
:104420008091D8008F7D8093D8008091E1008F7EAD
:104430008093E1008091E2008F7E8093E200809182
:10444000E20081608093E20080917A04882309F47D
:1044500049C084E080937E040E94311E8091E10077
:1044600083FF29C08091E20083FF25C08091E10095
:10447000877F8093E10082E080937E0410927A042B
:104480008091E1008E7F8093E1008091E2008E7F39
:104490008093E2008091E20080618093E20042E03C
:1044A00060E080E00E94A8208091F0008860809306
:1044B000F0000E94271EFF91EF91BF91AF919F9155
:1044C0008F917F916F915F914F913F912F910F90BD
:1044D0000FBE0F901F90189519BC10927E040E9479
:1044E000241E72CF8091E30087FD02C081E0B2CF2D
:1044F00083E0B0CF1F920F920FB60F921124FF925C
:104500000F931F932F933F934F935F936F937F93DB
:104510008F939F93AF93BF93CF93DF93EF93FF93CB
:1045200009EE10E0F8018081C091EC00C795CC271E
:10453000C7958F70FC2EF82A1082C0EFD0E08881DA
:10454000877F888378940E94C322F8011082888133
:1045500088608883CF2DCF70C083FF91EF91DF916A
:10456000CF91BF91AF919F918F917F916F915F910B
:104570004F913F912F911F910F91FF900F900FBE80
:104580000F901F9018951F93CF93DF93CDB7DEB791
:10459000AA970FB6F894DEBF0FBECDBF8FE794E0A9
:1045A000FC0101962091F100208324E087389207D6
:1045B000B9F70E944A1E8091E80083FF1DC18091D7
:1045C0007F04909180049A3008F016C1E92FF0E042
:1045D000E053FB4D0C945524803899F0823809F053
:1045E0000BC1809183048F70873008F005C18093E0
:1045F000E9008091EB0085FB882780F91092E900A3
:1046000006C080917B0490917C049111826090910E
:10461000E800977F9093E8008093F1001092F100FA
:104620008091E8008E77E4C0882309F4D2C08230FC
:1046300009F0E2C0809181048111D5C0809183048A
:104640008F702FEF280F263008F0D6C08093E90036
:104650002091EB0020FFC7C0933031F48091EB0034
:1046600080628093EB00BFC09091EB0090619093CB
:10467000EB0021E030E001C0220F8A95EAF7209399
:10468000EA001092EA008091EB008860EACF811185
:10469000B3C0109181041F778091E3008078812B53
:1046A0008093E3008091E800877F8093E8000E9478
:1046B000DC208091E80080FFFCCF8091E3008068DF
:1046C0008093E30082E0111183E080937E0494C024
:1046D0008058823008F090C08091810490918204CB
:1046E0008C3D23E0920799F583E08A838AE28983EF
:1046F0004FB7F894DE01139620E03EE051E2E32F3D
:10470000F0E050935700849120FF03C082958F7092
:104710003F5F8F708A30C8F0895C90E08D939D93E5
:104720002F5F243161F74FBF8091E800877F80932E
:10473000E8006AE270E0CE0101960E94F31F8091CA
:10474000E8008B778093E80057C0805DE6CF6091EA
:10475000830470918404AE014F5F5F4F0E94451F38
:10476000BC01892B09F448C08091E800877F8093C1
:10477000E80089819A810E944D20E1CF8038E1F5DF
:104780008091E800877F8093E80080917A0480938D
:10479000F10046CF811130C090918104923060F5D4
:1047A0008091E800877F8093E80090937A040E94CC
:1047B000DC2080917A04882311F084E005C0809188
:1047C000E30087FDFACF81E080937E040E943B1EC8
:1047D00013C080918104813079F481E0933009F035
:1047E00080E080937C041092E9008091E800877F4C
:1047F0008093E8000E94DC208091E80083FF0AC0DB
:104800008091E800877F8093E8008091EB008062D0
:104810008093EB00AA960FB6F894DEBF0FBECDBF13
:10482000DF91CF911F9108950895CF9380917E04D9
:10483000882399F08091E900C091EC00C795CC27BE
:10484000C7958F70C82B1092E9008091E80083FD16
:104850000E94C322CF70C093E900CF9108950E94B7
:104860002C2110927E040895E8EDF0E080818061B3
:1048700080838AE18A95F1F700C08091D900817028
:104880000895AA1BBB1B51E107C0AA1FBB1FA61797
:10489000B70710F0A61BB70B881F991F5A95A9F7E9
:1048A00080959095BC01CD010895EE0FFF1F0590F6
:1048B000F491E02D0994FB01DC0104C08D9101907D
:1048C000801921F441505040C8F7881B990B089576
:1048D000FB01DC0102C001900D9241505040D8F71D
:1048E0000895F999FECF92BD81BDF89A992780B5B8
:1048F0000895A8E1B0E042E050E00C94A524262FF2
:10490000F999FECF92BD81BDF89A019700B40216C5
:1049100039F01FBA20BD0FB6F894FA9AF99A0FBE73
:1049200008950396272F0E9480240E947F24252F1C
:104930000E948024242F0C9480240196272F0E940B
:1049400080240C947F24DC01CB01FC01F999FECF7B
:1049500006C0F2BDE1BDF89A319600B40D92415007
:104960005040B8F70895F894FFCFBA17BE17C21792
:10497000D017D417D817DC17E217EA17EE17F2177B
:10498000F617021806180A180E18141832181C18F0
:10499000CC17FA17FE17E617181828183B183F18F7
:1049A000EC221423FC231423FC2347236823FC2339
:0449B000BE23CA2335
:1049B400C800D40101000000010000000000000054
:1049C40005010000000406000000000000002100B2
:1049D4007F220003DF1DE41D141EE21D151EE31DCE
:1049E40001F6F7313332366697C63435F901736C04
:1049F4006176655F6D61747269780073796E635F67
:0E4A040074696D657200000810181810080023
:00000001FF
